{
  "transactions": [
    {
      "hash": "0xf7bfc66995e5b99edbccd74020214e8f726ca9006734ac2dd82b8c87ec56e9d7",
      "transactionType": "CREATE",
      "contractName": "PiscineV1Exchange",
      "contractAddress": "0xc565eb7363769f8ffae0005285ccd854c631a0a0",
      "function": null,
      "arguments": [
        "0x7a250d5630B4cF539739dF2C5dAcb4c659F2488D"
      ],
      "transaction": {
        "from": "0xf39fd6e51aad88f6f4ce6ab8827279cfffb92266",
        "gas": "0x3a5cf9",
        "value": "0x0",
        "input": "0x60a060405234801561000f575f5ffd5b5060405161351a38038061351a83398101604081905261002e916100bd565b338061005357604051631e4fbdf760e01b81525f600482015260240160405180910390fd5b61005c8161006e565b506001600160a01b03166080526100ea565b5f80546001600160a01b038381166001600160a01b0319831681178455604051919092169283917f8be0079c531659141344cd1fd0a4f28419497f9722a3daafe3b4186f6b6457e09190a35050565b5f602082840312156100cd575f5ffd5b81516001600160a01b03811681146100e3575f5ffd5b9392505050565b6080516134116101095f395f818161020a015261053b01526134115ff3fe608060405234801561000f575f5ffd5b50600436106100e5575f3560e01c8063ac4afa3811610088578063cf6c62ea11610063578063cf6c62ea1461025a578063d752fab21461026d578063e343361514610280578063f2fde38b14610293575f5ffd5b8063ac4afa381461022c578063cabcbc801461023f578063ce883cdb14610252575f5ffd5b8063715018a6116100c3578063715018a6146101cb5780638da5cb5b146101d55780638e18cdfc146101f2578063a82ed9ec14610205575f5ffd5b8063471a56b3146100e9578063525f28e5146101395780635eddb55014610166575b5f5ffd5b6100fc6100f736600461152f565b6102a6565b6040805173ffffffffffffffffffffffffffffffffffffffff95861681529490931660208501529183015260608201526080015b60405180910390f35b61015861014736600461152f565b60036020525f908152604090205481565b604051908152602001610130565b6101a6610174366004611551565b600260209081525f928352604080842090915290825290205473ffffffffffffffffffffffffffffffffffffffff1681565b60405173ffffffffffffffffffffffffffffffffffffffff9091168152602001610130565b6101d36104c2565b005b5f5473ffffffffffffffffffffffffffffffffffffffff166101a6565b6101d3610200366004611588565b6104d5565b6101a67f000000000000000000000000000000000000000000000000000000000000000081565b6101a661023a3660046115cb565b6107ff565b6101d361024d3660046115e2565b610834565b600154610158565b6101d3610268366004611588565b6108dd565b6101d361027b36600461160c565b610a5b565b6101d361028e366004611551565b610b6b565b6101d36102a136600461152f565b610d68565b5f5f5f5f5f8590505f8173ffffffffffffffffffffffffffffffffffffffff16630dfe16816040518163ffffffff1660e01b8152600401602060405180830381865afa1580156102f8573d5f5f3e3d5ffd5b505050506040513d601f19601f8201168201806040525081019061031c919061164a565b90505f8273ffffffffffffffffffffffffffffffffffffffff1663d21220a76040518163ffffffff1660e01b8152600401602060405180830381865afa158015610368573d5f5f3e3d5ffd5b505050506040513d601f19601f8201168201806040525081019061038c919061164a565b6040517fea4454a400000000000000000000000000000000000000000000000000000000815273ffffffffffffffffffffffffffffffffffffffff8085166004830152919250839183919086169063ea4454a490602401602060405180830381865afa1580156103fe573d5f5f3e3d5ffd5b505050506040513d601f19601f820116820180604052508101906104229190611665565b6040517fea4454a400000000000000000000000000000000000000000000000000000000815273ffffffffffffffffffffffffffffffffffffffff858116600483015287169063ea4454a490602401602060405180830381865afa15801561048c573d5f5f3e3d5ffd5b505050506040513d601f19601f820116820180604052508101906104b09190611665565b96509650965096505050509193509193565b6104ca610dd0565b6104d35f610e22565b565b6104df8484610e96565b5f5f6104eb8686610f6d565b73ffffffffffffffffffffffffffffffffffffffff8083165f9081526002602090815260408083208486168452909152902054929450909250168061074a576040805160028082526060820183527f0000000000000000000000000000000000000000000000000000000000000000925f92919060208301908036833701905050905088815f81518110610581576105816116a9565b602002602001019073ffffffffffffffffffffffffffffffffffffffff16908173ffffffffffffffffffffffffffffffffffffffff168152505087816001815181106105cf576105cf6116a9565b73ffffffffffffffffffffffffffffffffffffffff909216602092830291909101909101525f6103e8610604896103e7611703565b61060e919061171a565b905061063273ffffffffffffffffffffffffffffffffffffffff8b1633308b610fb7565b61063e8a308584611046565b6106488189611752565b73ffffffffffffffffffffffffffffffffffffffff8b165f908152600360205260408120805490919061067c908490611765565b909155505073ffffffffffffffffffffffffffffffffffffffff83166338ed1739828985336106ad4261012c611765565b6040518663ffffffff1660e01b81526004016106cd959493929190611778565b5f604051808303815f875af11580156106e8573d5f5f3e3d5ffd5b505050506040513d5f823e601f3d9081017fffffffffffffffffffffffffffffffffffffffffffffffffffffffffffffffe016820160405261072d9190810190611802565b60018151811061073f5761073f6116a9565b506107f69350505050565b61076c73ffffffffffffffffffffffffffffffffffffffff8816338388610fb7565b6040517fcbc7879800000000000000000000000000000000000000000000000000000000815273ffffffffffffffffffffffffffffffffffffffff88811660048301526024820186905233604483015282169063cbc78798906064015f604051808303815f87803b1580156107df575f5ffd5b505af11580156107f1573d5f5f3e3d5ffd5b505050505b50505050505050565b6001818154811061080e575f80fd5b5f9182526020909120015473ffffffffffffffffffffffffffffffffffffffff16905081565b61083c610dd0565b73ffffffffffffffffffffffffffffffffffffffff82165f9081526003602052604081208054839290610870908490611752565b90915550610897905073ffffffffffffffffffffffffffffffffffffffff83163383611126565b604051819073ffffffffffffffffffffffffffffffffffffffff8416907fc093ba639186d6268548a28d7ae564c0b74bc7d420272f26c35a042b55ca6b69905f90a35050565b6108e78484610e96565b8115806108f2575080155b15610929576040517fcbca5aa200000000000000000000000000000000000000000000000000000000815260040160405180910390fd5b5f5f5f5f61093988888888611169565b93509350935093505f61094d8989306111c0565b73ffffffffffffffffffffffffffffffffffffffff8681165f908152600260209081526040808320898516845290915290205491925016610992576109928989610b6b565b6109b473ffffffffffffffffffffffffffffffffffffffff8616338386610fb7565b6109d673ffffffffffffffffffffffffffffffffffffffff8516338385610fb7565b6040517fe3412e3d00000000000000000000000000000000000000000000000000000000815233600482015273ffffffffffffffffffffffffffffffffffffffff82169063e3412e3d906024015f604051808303815f87803b158015610a3a575f5ffd5b505af1158015610a4c573d5f5f3e3d5ffd5b50505050505050505050505050565b610a658383610e96565b5f5f610a718585610f6d565b73ffffffffffffffffffffffffffffffffffffffff8083165f90815260026020908152604080832084861684529091529020549294509092501680610ae2576040517f9c8787c000000000000000000000000000000000000000000000000000000000815260040160405180910390fd5b6040517f05fe138b0000000000000000000000000000000000000000000000000000000081526004810185905233602482015273ffffffffffffffffffffffffffffffffffffffff8216906305fe138b906044015f604051808303815f87803b158015610b4d575f5ffd5b505af1158015610b5f573d5f5f3e3d5ffd5b50505050505050505050565b610b758282610e96565b5f5f610b818484610f6d565b73ffffffffffffffffffffffffffffffffffffffff8083165f90815260026020908152604080832084861684529091529020549294509092501615610bf2576040517f0311932200000000000000000000000000000000000000000000000000000000815260040160405180910390fd5b6040517fffffffffffffffffffffffffffffffffffffffff000000000000000000000000606084811b8216602084015283901b1660348201525f906048016040516020818303038152906040528051906020012090505f818484604051610c5890611501565b73ffffffffffffffffffffffffffffffffffffffff9283168152911660208201526040018190604051809103905ff5905080158015610c99573d5f5f3e3d5ffd5b50600180548082019091557fb10e2d527612073b26eecdfd717e6a320cf44b4afac2b0732d9fcbe2b7fa0cf601805473ffffffffffffffffffffffffffffffffffffffff8084167fffffffffffffffffffffffff000000000000000000000000000000000000000092831681179093558781165f818152600260209081526040808320948b168084529490915280822080549095168617909455925194955090939092917f9c5d829b9b23efc461f9aeef91979ec04bb903feb3bee4f26d22114abfc7335b91a4505050505050565b610d70610dd0565b73ffffffffffffffffffffffffffffffffffffffff8116610dc4576040517f1e4fbdf70000000000000000000000000000000000000000000000000000000081525f60048201526024015b60405180910390fd5b610dcd81610e22565b50565b5f5473ffffffffffffffffffffffffffffffffffffffff1633146104d3576040517f118cdaa7000000000000000000000000000000000000000000000000000000008152336004820152602401610dbb565b5f805473ffffffffffffffffffffffffffffffffffffffff8381167fffffffffffffffffffffffff0000000000000000000000000000000000000000831681178455604051919092169283917f8be0079c531659141344cd1fd0a4f28419497f9722a3daafe3b4186f6b6457e09190a35050565b8073ffffffffffffffffffffffffffffffffffffffff168273ffffffffffffffffffffffffffffffffffffffff1603610efb576040517f201b580a00000000000000000000000000000000000000000000000000000000815260040160405180910390fd5b73ffffffffffffffffffffffffffffffffffffffff82161580610f32575073ffffffffffffffffffffffffffffffffffffffff8116155b15610f69576040517f9fabe1c100000000000000000000000000000000000000000000000000000000815260040160405180910390fd5b5050565b5f5f8273ffffffffffffffffffffffffffffffffffffffff168473ffffffffffffffffffffffffffffffffffffffff1610610fa9578284610fac565b83835b915091509250929050565b60405173ffffffffffffffffffffffffffffffffffffffff84811660248301528381166044830152606482018390526110409186918216906323b872dd906084015b604051602081830303815290604052915060e01b6020820180517bffffffffffffffffffffffffffffffffffffffffffffffffffffffff83818316178352505050506112f4565b50505050565b6040517fdd62ed3e00000000000000000000000000000000000000000000000000000000815273ffffffffffffffffffffffffffffffffffffffff8481166004830152838116602483015282919086169063dd62ed3e90604401602060405180830381865afa1580156110bb573d5f5f3e3d5ffd5b505050506040513d601f19601f820116820180604052508101906110df9190611665565b10156110405761104073ffffffffffffffffffffffffffffffffffffffff8516837fffffffffffffffffffffffffffffffffffffffffffffffffffffffffffffffff611393565b60405173ffffffffffffffffffffffffffffffffffffffff83811660248301526044820183905261116491859182169063a9059cbb90606401610ff9565b505050565b5f5f5f5f8673ffffffffffffffffffffffffffffffffffffffff168873ffffffffffffffffffffffffffffffffffffffff16106111a957868886886111ae565b878787875b929b919a509850909650945050505050565b5f5f5f6111cd8686610f6d565b6040517fffffffffffffffffffffffffffffffffffffffff000000000000000000000000606084811b8216602084015283901b16603482015291935091505f906048016040516020818303038152906040528051906020012090505f838360405160200161125e92919073ffffffffffffffffffffffffffffffffffffffff92831681529116602082015260400190565b60405160208183030381529060405290505f6040518060200161128090611501565b7fffffffffffffffffffffffffffffffffffffffffffffffffffffffffffffffe082820381018352601f9091011660408190526112c2919084906020016118ff565b6040516020818303038152906040528051906020012090505f6112e684838a61146a565b9a9950505050505050505050565b5f5f60205f8451602086015f885af180611313576040513d5f823e3d81fd5b50505f513d9150811561132a578060011415611344565b73ffffffffffffffffffffffffffffffffffffffff84163b155b15611040576040517f5274afe700000000000000000000000000000000000000000000000000000000815273ffffffffffffffffffffffffffffffffffffffff85166004820152602401610dbb565b6040805173ffffffffffffffffffffffffffffffffffffffff8416602482015260448082018490528251808303909101815260649091019091526020810180517bffffffffffffffffffffffffffffffffffffffffffffffffffffffff167f095ea7b30000000000000000000000000000000000000000000000000000000017905261141f84826114a9565b6110405760405173ffffffffffffffffffffffffffffffffffffffff84811660248301525f604483015261146091869182169063095ea7b390606401610ff9565b61104084826112f4565b5f604051836040820152846020820152828152600b8101905060ff81536055902073ffffffffffffffffffffffffffffffffffffffff16949350505050565b5f5f5f5f60205f8651602088015f8a5af192503d91505f5190508280156114f5575081156114da57806001146114f5565b5f8673ffffffffffffffffffffffffffffffffffffffff163b115b93505050505b92915050565b611ac08061191c83390190565b73ffffffffffffffffffffffffffffffffffffffff81168114610dcd575f5ffd5b5f6020828403121561153f575f5ffd5b813561154a8161150e565b9392505050565b5f5f60408385031215611562575f5ffd5b823561156d8161150e565b9150602083013561157d8161150e565b809150509250929050565b5f5f5f5f6080858703121561159b575f5ffd5b84356115a68161150e565b935060208501356115b68161150e565b93969395505050506040820135916060013590565b5f602082840312156115db575f5ffd5b5035919050565b5f5f604083850312156115f3575f5ffd5b82356115fe8161150e565b946020939093013593505050565b5f5f5f6060848603121561161e575f5ffd5b83356116298161150e565b925060208401356116398161150e565b929592945050506040919091013590565b5f6020828403121561165a575f5ffd5b815161154a8161150e565b5f60208284031215611675575f5ffd5b5051919050565b7f4e487b71000000000000000000000000000000000000000000000000000000005f52604160045260245ffd5b7f4e487b71000000000000000000000000000000000000000000000000000000005f52603260045260245ffd5b7f4e487b71000000000000000000000000000000000000000000000000000000005f52601160045260245ffd5b80820281158282048414176114fb576114fb6116d6565b5f8261174d577f4e487b71000000000000000000000000000000000000000000000000000000005f52601260045260245ffd5b500490565b818103818111156114fb576114fb6116d6565b808201808211156114fb576114fb6116d6565b5f60a0820187835286602084015260a0604084015280865180835260c0850191506020880192505f5b818110156117d557835173ffffffffffffffffffffffffffffffffffffffff168352602093840193909201916001016117a1565b505073ffffffffffffffffffffffffffffffffffffffff9590951660608401525050608001529392505050565b5f60208284031215611812575f5ffd5b815167ffffffffffffffff811115611828575f5ffd5b8201601f81018413611838575f5ffd5b805167ffffffffffffffff8111156118525761185261167c565b8060051b6040517fffffffffffffffffffffffffffffffffffffffffffffffffffffffffffffffe0603f830116810181811067ffffffffffffffff8211171561189d5761189d61167c565b6040529182526020818401810192908101878411156118ba575f5ffd5b6020850194505b838510156118dd578451808252602095860195909350016118c1565b509695505050505050565b5f81518060208401855e5f93019283525090919050565b5f61191361190d83866118e8565b846118e8565b94935050505056fe60c060405234801561000f575f5ffd5b50604051611ac0380380611ac083398101604081905261002e916100c4565b6040518060400160405280601081526020016f2834b9b1b4b732902628102a37b5b2b760811b815250604051806040016040528060038152602001620504c560ec1b8152508160039081610082919061018d565b50600461008f828261018d565b5050506001600160a01b039182166080521660a052610247565b80516001600160a01b03811681146100bf575f5ffd5b919050565b5f5f604083850312156100d5575f5ffd5b6100de836100a9565b91506100ec602084016100a9565b90509250929050565b634e487b7160e01b5f52604160045260245ffd5b600181811c9082168061011d57607f821691505b60208210810361013b57634e487b7160e01b5f52602260045260245ffd5b50919050565b601f82111561018857805f5260205f20601f840160051c810160208510156101665750805b601f840160051c820191505b81811015610185575f8155600101610172565b50505b505050565b81516001600160401b038111156101a6576101a66100f5565b6101ba816101b48454610109565b84610141565b6020601f8211600181146101ec575f83156101d55750848201515b5f19600385901b1c1916600184901b178455610185565b5f84815260208120601f198516915b8281101561021b57878501518255602094850194600190920191016101fb565b508482101561023857868401515f19600387901b60f8161c191681555b50505050600190811b01905550565b60805160a0516117e86102d85f395f81816102320152818161035201528181610411015281816104af015281816106830152818161072a0152818161099a01528181610a8d0152610c8b01525f818161014f015281816102ec015281816103b80152818161046e0152818161061b015281816106b5015281816106f8015281816109680152610c3201526117e85ff3fe608060405234801561000f575f5ffd5b50600436106100f0575f3560e01c806370a0823111610093578063d21220a711610063578063d21220a71461022d578063dd62ed3e14610254578063e3412e3d14610299578063ea4454a4146102ac575f5ffd5b806370a08231146101ca57806395d89b41146101ff578063a9059cbb14610207578063cbc787981461021a575f5ffd5b80630dfe1681116100ce5780630dfe16811461014a57806318160ddd1461019657806323b872dd146101a8578063313ce567146101bb575f5ffd5b806305fe138b146100f457806306fdde0314610109578063095ea7b314610127575b5f5ffd5b610107610102366004611522565b6102cb565b005b61011161052e565b60405161011e919061154c565b60405180910390f35b61013a61013536600461159f565b6105be565b604051901515815260200161011e565b6101717f000000000000000000000000000000000000000000000000000000000000000081565b60405173ffffffffffffffffffffffffffffffffffffffff909116815260200161011e565b6002545b60405190815260200161011e565b61013a6101b63660046115c7565b6105d7565b6040516012815260200161011e565b61019a6101d8366004611601565b73ffffffffffffffffffffffffffffffffffffffff165f9081526020819052604090205490565b6101116105fa565b61013a61021536600461159f565b610609565b61010761022836600461161a565b610616565b6101717f000000000000000000000000000000000000000000000000000000000000000081565b61019a610262366004611653565b73ffffffffffffffffffffffffffffffffffffffff9182165f90815260016020908152604080832093909416825291909152205490565b6101076102a7366004611601565b610951565b61019a6102ba366004611601565b60056020525f908152604090205481565b5f6102d560025490565b73ffffffffffffffffffffffffffffffffffffffff7f0000000000000000000000000000000000000000000000000000000000000000165f908152600560205260409020546103259085906116a8565b61032f91906116ec565b90505f61033b60025490565b73ffffffffffffffffffffffffffffffffffffffff7f0000000000000000000000000000000000000000000000000000000000000000165f9081526005602052604090205461038b9086906116a8565b61039591906116ec565b90506103a18385610d29565b73ffffffffffffffffffffffffffffffffffffffff7f0000000000000000000000000000000000000000000000000000000000000000165f90815260056020526040812080548492906103f5908490611724565b909155505073ffffffffffffffffffffffffffffffffffffffff7f0000000000000000000000000000000000000000000000000000000000000000165f908152600560205260408120805483929061044e908490611724565b90915550610495905073ffffffffffffffffffffffffffffffffffffffff7f0000000000000000000000000000000000000000000000000000000000000000168484610d8c565b6104d673ffffffffffffffffffffffffffffffffffffffff7f0000000000000000000000000000000000000000000000000000000000000000168483610d8c565b80828473ffffffffffffffffffffffffffffffffffffffff167f1dc8bb69df2b8e91fbdcbfcf93d951b3f0000f085a95fe3f7946d6161439245d8760405161052091815260200190565b60405180910390a450505050565b60606003805461053d90611737565b80601f016020809104026020016040519081016040528092919081815260200182805461056990611737565b80156105b45780601f1061058b576101008083540402835291602001916105b4565b820191905f5260205f20905b81548152906001019060200180831161059757829003601f168201915b5050505050905090565b5f336105cb818585610e1e565b60019150505b92915050565b5f336105e4858285610e2b565b6105ef858585610ef9565b506001949350505050565b60606004805461053d90611737565b5f336105cb818585610ef9565b5f5f5f7f000000000000000000000000000000000000000000000000000000000000000073ffffffffffffffffffffffffffffffffffffffff168673ffffffffffffffffffffffffffffffffffffffff16146106e15773ffffffffffffffffffffffffffffffffffffffff7f000000000000000000000000000000000000000000000000000000000000000081165f90815260056020526040808220547f00000000000000000000000000000000000000000000000000000000000000009384168352912054610752565b73ffffffffffffffffffffffffffffffffffffffff7f000000000000000000000000000000000000000000000000000000000000000081165f90815260056020526040808220547f000000000000000000000000000000000000000000000000000000000000000093841683529120545b6040517f70a0823100000000000000000000000000000000000000000000000000000000815230600482015292955090935091505f90839073ffffffffffffffffffffffffffffffffffffffff8916906370a0823190602401602060405180830381865afa1580156107c6573d5f5f3e3d5ffd5b505050506040513d601f19601f820116820180604052508101906107ea9190611788565b6107f49190611724565b90505f6103e8610806836103e56116a8565b61081091906116ec565b90505f61081d828661179f565b61082783866116a8565b61083191906116ec565b90508781101561086d576040517f42301c2300000000000000000000000000000000000000000000000000000000815260040160405180910390fd5b73ffffffffffffffffffffffffffffffffffffffff89165f90815260056020526040812080548592906108a190849061179f565b909155505073ffffffffffffffffffffffffffffffffffffffff86165f90815260056020526040812080548392906108da908490611724565b90915550610901905073ffffffffffffffffffffffffffffffffffffffff87168883610d8c565b80838873ffffffffffffffffffffffffffffffffffffffff167f18704ae982dcd24a1beeeed3ecf045ab0520d7b7519b97adf3e4f40bf7efe33960405160405180910390a4505050505050505050565b73ffffffffffffffffffffffffffffffffffffffff7f000000000000000000000000000000000000000000000000000000000000000081165f81815260056020526040808220547f000000000000000000000000000000000000000000000000000000000000000090941682528082205490517f70a08231000000000000000000000000000000000000000000000000000000008152306004820152909284916370a0823190602401602060405180830381865afa158015610a15573d5f5f3e3d5ffd5b505050506040513d601f19601f82011682018060405250810190610a399190611788565b610a439190611724565b6040517f70a082310000000000000000000000000000000000000000000000000000000081523060048201529091505f90839073ffffffffffffffffffffffffffffffffffffffff7f000000000000000000000000000000000000000000000000000000000000000016906370a0823190602401602060405180830381865afa158015610ad2573d5f5f3e3d5ffd5b505050506040513d601f19601f82011682018060405250810190610af69190611788565b610b009190611724565b90505f845f03610b2357610b1c610b1783856116a8565b610fa2565b9050610c11565b5f84610b3787670de0b6b3a76400006116a8565b610b4191906116ec565b90505f83610b5786670de0b6b3a76400006116a8565b610b6191906116ec565b90505f610b6f6064846116ec565b9050610b7b818461179f565b821180610b905750610b8d8184611724565b82105b15610bc7576040517f648564d300000000000000000000000000000000000000000000000000000000815260040160405180910390fd5b610c0b88610bd460025490565b610bde90896116a8565b610be891906116ec565b88610bf260025490565b610bfc90896116a8565b610c0691906116ec565b611107565b93505050505b610c1b8682611119565b73ffffffffffffffffffffffffffffffffffffffff7f0000000000000000000000000000000000000000000000000000000000000000165f9081526005602052604081208054859290610c6f90849061179f565b909155505073ffffffffffffffffffffffffffffffffffffffff7f0000000000000000000000000000000000000000000000000000000000000000165f9081526005602052604081208054849290610cc890849061179f565b9250508190555081838773ffffffffffffffffffffffffffffffffffffffff167f64b83944e79c3ce8d4c297411de637c3e102d064677aac0c163976ebdcd6f50e84604051610d1991815260200190565b60405180910390a4505050505050565b73ffffffffffffffffffffffffffffffffffffffff8216610d7d576040517f96c6fd1e0000000000000000000000000000000000000000000000000000000081525f60048201526024015b60405180910390fd5b610d88825f8361116f565b5050565b6040805173ffffffffffffffffffffffffffffffffffffffff8416602482015260448082018490528251808303909101815260649091019091526020810180517bffffffffffffffffffffffffffffffffffffffffffffffffffffffff167fa9059cbb00000000000000000000000000000000000000000000000000000000179052610e19908490611316565b505050565b610e1983838360016113b5565b73ffffffffffffffffffffffffffffffffffffffff8381165f908152600160209081526040808320938616835292905220547fffffffffffffffffffffffffffffffffffffffffffffffffffffffffffffffff811015610ef35781811015610ee5576040517ffb8f41b200000000000000000000000000000000000000000000000000000000815273ffffffffffffffffffffffffffffffffffffffff841660048201526024810182905260448101839052606401610d74565b610ef384848484035f6113b5565b50505050565b73ffffffffffffffffffffffffffffffffffffffff8316610f48576040517f96c6fd1e0000000000000000000000000000000000000000000000000000000081525f6004820152602401610d74565b73ffffffffffffffffffffffffffffffffffffffff8216610f97576040517fec442f050000000000000000000000000000000000000000000000000000000081525f6004820152602401610d74565b610e1983838361116f565b5f60018211610faf575090565b8160017001000000000000000000000000000000008210610fd55760809190911c9060401b5b680100000000000000008210610ff05760409190911c9060201b5b64010000000082106110075760209190911c9060101b5b62010000821061101c5760109190911c9060081b5b61010082106110305760089190911c9060041b5b601082106110435760049190911c9060021b5b6004821061104f5760011b5b600302600190811c90818581611067576110676116bf565b048201901c9050600181858161107f5761107f6116bf565b048201901c90506001818581611097576110976116bf565b048201901c905060018185816110af576110af6116bf565b048201901c905060018185816110c7576110c76116bf565b048201901c905060018185816110df576110df6116bf565b048201901c90506110fe8185816110f8576110f86116bf565b04821190565b90039392505050565b5f8282188284100282185b9392505050565b73ffffffffffffffffffffffffffffffffffffffff8216611168576040517fec442f050000000000000000000000000000000000000000000000000000000081525f6004820152602401610d74565b610d885f83835b73ffffffffffffffffffffffffffffffffffffffff83166111a6578060025f82825461119b919061179f565b909155506112569050565b73ffffffffffffffffffffffffffffffffffffffff83165f908152602081905260409020548181101561122b576040517fe450d38c00000000000000000000000000000000000000000000000000000000815273ffffffffffffffffffffffffffffffffffffffff851660048201526024810182905260448101839052606401610d74565b73ffffffffffffffffffffffffffffffffffffffff84165f9081526020819052604090209082900390555b73ffffffffffffffffffffffffffffffffffffffff821661127f576002805482900390556112aa565b73ffffffffffffffffffffffffffffffffffffffff82165f9081526020819052604090208054820190555b8173ffffffffffffffffffffffffffffffffffffffff168373ffffffffffffffffffffffffffffffffffffffff167fddf252ad1be2c89b69c2b068fc378daa952ba7f163c4a11628f55a4df523b3ef8360405161130991815260200190565b60405180910390a3505050565b5f5f60205f8451602086015f885af180611335576040513d5f823e3d81fd5b50505f513d9150811561134c578060011415611366565b73ffffffffffffffffffffffffffffffffffffffff84163b155b15610ef3576040517f5274afe700000000000000000000000000000000000000000000000000000000815273ffffffffffffffffffffffffffffffffffffffff85166004820152602401610d74565b73ffffffffffffffffffffffffffffffffffffffff8416611404576040517fe602df050000000000000000000000000000000000000000000000000000000081525f6004820152602401610d74565b73ffffffffffffffffffffffffffffffffffffffff8316611453576040517f94280d620000000000000000000000000000000000000000000000000000000081525f6004820152602401610d74565b73ffffffffffffffffffffffffffffffffffffffff8085165f9081526001602090815260408083209387168352929052208290558015610ef3578273ffffffffffffffffffffffffffffffffffffffff168473ffffffffffffffffffffffffffffffffffffffff167f8c5be1e5ebec7d5bd14f71427d1e84f3dd0314c0f7b2291e5b200ac8c7c3b925846040516114ec91815260200190565b60405180910390a350505050565b803573ffffffffffffffffffffffffffffffffffffffff8116811461151d575f5ffd5b919050565b5f5f60408385031215611533575f5ffd5b82359150611543602084016114fa565b90509250929050565b602081525f82518060208401528060208501604085015e5f6040828501015260407fffffffffffffffffffffffffffffffffffffffffffffffffffffffffffffffe0601f83011684010191505092915050565b5f5f604083850312156115b0575f5ffd5b6115b9836114fa565b946020939093013593505050565b5f5f5f606084860312156115d9575f5ffd5b6115e2846114fa565b92506115f0602085016114fa565b929592945050506040919091013590565b5f60208284031215611611575f5ffd5b611112826114fa565b5f5f5f6060848603121561162c575f5ffd5b611635846114fa565b92506020840135915061164a604085016114fa565b90509250925092565b5f5f60408385031215611664575f5ffd5b61166d836114fa565b9150611543602084016114fa565b7f4e487b71000000000000000000000000000000000000000000000000000000005f52601160045260245ffd5b80820281158282048414176105d1576105d161167b565b7f4e487b71000000000000000000000000000000000000000000000000000000005f52601260045260245ffd5b5f8261171f577f4e487b71000000000000000000000000000000000000000000000000000000005f52601260045260245ffd5b500490565b818103818111156105d1576105d161167b565b600181811c9082168061174b57607f821691505b602082108103611782577f4e487b71000000000000000000000000000000000000000000000000000000005f52602260045260245ffd5b50919050565b5f60208284031215611798575f5ffd5b5051919050565b808201808211156105d1576105d161167b56fea2646970667358221220049d73e7b88a453d9a3a019ab9e2112ac38a9fd2931c8d938ac142e14b499d9064736f6c634300081d0033a26469706673582212209036ab253dfeb0ddec04a668f9fa86ade76f2a81a6b987752ee0f20e5289789164736f6c634300081d00330000000000000000000000007a250d5630b4cf539739df2c5dacb4c659f2488d",
        "nonce": "0x3ac",
        "chainId": "0x1"
      },
      "additionalContracts": [],
      "isFixedGasLimit": false
    },
    {
      "hash": "0x42f0f8a5da10ebc412a3c5ebfc561e6587dfbc2908175297a8b99a419e6b025d",
      "transactionType": "CREATE",
      "contractName": "ERC20Mock",
      "contractAddress": "0x2c56932223cde0d363266f1308c48ff1bf9f9041",
      "function": null,
      "arguments": null,
      "transaction": {
        "from": "0xf39fd6e51aad88f6f4ce6ab8827279cfffb92266",
        "gas": "0xd1802",
        "value": "0x0",
        "input": "0x608060405234801561000f575f5ffd5b506040518060400160405280600981526020016845524332304d6f636b60b81b815250604051806040016040528060048152602001634532304d60e01b815250816003908161005e919061010b565b50600461006b828261010b565b5050506101c5565b634e487b7160e01b5f52604160045260245ffd5b600181811c9082168061009b57607f821691505b6020821081036100b957634e487b7160e01b5f52602260045260245ffd5b50919050565b601f82111561010657805f5260205f20601f840160051c810160208510156100e45750805b601f840160051c820191505b81811015610103575f81556001016100f0565b50505b505050565b81516001600160401b0381111561012457610124610073565b610138816101328454610087565b846100bf565b6020601f82116001811461016a575f83156101535750848201515b5f19600385901b1c1916600184901b178455610103565b5f84815260208120601f198516915b828110156101995787850151825560209485019460019092019101610179565b50848210156101b657868401515f19600387901b60f8161c191681555b50505050600190811b01905550565b610a15806101d25f395ff3fe608060405234801561000f575f5ffd5b50600436106100c4575f3560e01c806340c10f191161007d5780639dc29fac116100585780639dc29fac1461018f578063a9059cbb146101a2578063dd62ed3e146101b5575f5ffd5b806340c10f191461013d57806370a082311461015257806395d89b4114610187575f5ffd5b806318160ddd116100ad57806318160ddd1461010957806323b872dd1461011b578063313ce5671461012e575f5ffd5b806306fdde03146100c8578063095ea7b3146100e6575b5f5ffd5b6100d06101fa565b6040516100dd9190610828565b60405180910390f35b6100f96100f43660046108a3565b61028a565b60405190151581526020016100dd565b6002545b6040519081526020016100dd565b6100f96101293660046108cb565b6102a3565b604051601281526020016100dd565b61015061014b3660046108a3565b6102c6565b005b61010d610160366004610905565b73ffffffffffffffffffffffffffffffffffffffff165f9081526020819052604090205490565b6100d06102d4565b61015061019d3660046108a3565b6102e3565b6100f96101b03660046108a3565b6102ed565b61010d6101c3366004610925565b73ffffffffffffffffffffffffffffffffffffffff9182165f90815260016020908152604080832093909416825291909152205490565b60606003805461020990610956565b80601f016020809104026020016040519081016040528092919081815260200182805461023590610956565b80156102805780601f1061025757610100808354040283529160200191610280565b820191905f5260205f20905b81548152906001019060200180831161026357829003601f168201915b5050505050905090565b5f336102978185856102fa565b60019150505b92915050565b5f336102b085828561030c565b6102bb8585856103df565b506001949350505050565b6102d08282610488565b5050565b60606004805461020990610956565b6102d082826104e2565b5f336102978185856103df565b610307838383600161053c565b505050565b73ffffffffffffffffffffffffffffffffffffffff8381165f908152600160209081526040808320938616835292905220547fffffffffffffffffffffffffffffffffffffffffffffffffffffffffffffffff8110156103d957818110156103cb576040517ffb8f41b200000000000000000000000000000000000000000000000000000000815273ffffffffffffffffffffffffffffffffffffffff8416600482015260248101829052604481018390526064015b60405180910390fd5b6103d984848484035f61053c565b50505050565b73ffffffffffffffffffffffffffffffffffffffff831661042e576040517f96c6fd1e0000000000000000000000000000000000000000000000000000000081525f60048201526024016103c2565b73ffffffffffffffffffffffffffffffffffffffff821661047d576040517fec442f050000000000000000000000000000000000000000000000000000000081525f60048201526024016103c2565b610307838383610681565b73ffffffffffffffffffffffffffffffffffffffff82166104d7576040517fec442f050000000000000000000000000000000000000000000000000000000081525f60048201526024016103c2565b6102d05f8383610681565b73ffffffffffffffffffffffffffffffffffffffff8216610531576040517f96c6fd1e0000000000000000000000000000000000000000000000000000000081525f60048201526024016103c2565b6102d0825f83610681565b73ffffffffffffffffffffffffffffffffffffffff841661058b576040517fe602df050000000000000000000000000000000000000000000000000000000081525f60048201526024016103c2565b73ffffffffffffffffffffffffffffffffffffffff83166105da576040517f94280d620000000000000000000000000000000000000000000000000000000081525f60048201526024016103c2565b73ffffffffffffffffffffffffffffffffffffffff8085165f90815260016020908152604080832093871683529290522082905580156103d9578273ffffffffffffffffffffffffffffffffffffffff168473ffffffffffffffffffffffffffffffffffffffff167f8c5be1e5ebec7d5bd14f71427d1e84f3dd0314c0f7b2291e5b200ac8c7c3b9258460405161067391815260200190565b60405180910390a350505050565b73ffffffffffffffffffffffffffffffffffffffff83166106b8578060025f8282546106ad91906109a7565b909155506107689050565b73ffffffffffffffffffffffffffffffffffffffff83165f908152602081905260409020548181101561073d576040517fe450d38c00000000000000000000000000000000000000000000000000000000815273ffffffffffffffffffffffffffffffffffffffff8516600482015260248101829052604481018390526064016103c2565b73ffffffffffffffffffffffffffffffffffffffff84165f9081526020819052604090209082900390555b73ffffffffffffffffffffffffffffffffffffffff8216610791576002805482900390556107bc565b73ffffffffffffffffffffffffffffffffffffffff82165f9081526020819052604090208054820190555b8173ffffffffffffffffffffffffffffffffffffffff168373ffffffffffffffffffffffffffffffffffffffff167fddf252ad1be2c89b69c2b068fc378daa952ba7f163c4a11628f55a4df523b3ef8360405161081b91815260200190565b60405180910390a3505050565b602081525f82518060208401528060208501604085015e5f6040828501015260407fffffffffffffffffffffffffffffffffffffffffffffffffffffffffffffffe0601f83011684010191505092915050565b803573ffffffffffffffffffffffffffffffffffffffff8116811461089e575f5ffd5b919050565b5f5f604083850312156108b4575f5ffd5b6108bd8361087b565b946020939093013593505050565b5f5f5f606084860312156108dd575f5ffd5b6108e68461087b565b92506108f46020850161087b565b929592945050506040919091013590565b5f60208284031215610915575f5ffd5b61091e8261087b565b9392505050565b5f5f60408385031215610936575f5ffd5b61093f8361087b565b915061094d6020840161087b565b90509250929050565b600181811c9082168061096a57607f821691505b6020821081036109a1577f4e487b71000000000000000000000000000000000000000000000000000000005f52602260045260245ffd5b50919050565b8082018082111561029d577f4e487b71000000000000000000000000000000000000000000000000000000005f52601160045260245ffdfea264697066735822122099b05dca1033952e716b577f49ff731195f3697ab3f0c5dcde132605035e9c4864736f6c634300081d0033",
        "nonce": "0x3ad",
        "chainId": "0x1"
      },
      "additionalContracts": [],
      "isFixedGasLimit": false
    },
    {
      "hash": "0x3a8230aaf43ac106aea2bf14b7cc956dcd6eae7f97c40f7faea899f44d512d87",
      "transactionType": "CREATE",
      "contractName": "ERC20Mock",
      "contractAddress": "0x91c8c745fd156d8624677aa924cdc1ef8173c69c",
      "function": null,
      "arguments": null,
      "transaction": {
        "from": "0xf39fd6e51aad88f6f4ce6ab8827279cfffb92266",
        "gas": "0xd1802",
        "value": "0x0",
        "input": "0x608060405234801561000f575f5ffd5b506040518060400160405280600981526020016845524332304d6f636b60b81b815250604051806040016040528060048152602001634532304d60e01b815250816003908161005e919061010b565b50600461006b828261010b565b5050506101c5565b634e487b7160e01b5f52604160045260245ffd5b600181811c9082168061009b57607f821691505b6020821081036100b957634e487b7160e01b5f52602260045260245ffd5b50919050565b601f82111561010657805f5260205f20601f840160051c810160208510156100e45750805b601f840160051c820191505b81811015610103575f81556001016100f0565b50505b505050565b81516001600160401b0381111561012457610124610073565b610138816101328454610087565b846100bf565b6020601f82116001811461016a575f83156101535750848201515b5f19600385901b1c1916600184901b178455610103565b5f84815260208120601f198516915b828110156101995787850151825560209485019460019092019101610179565b50848210156101b657868401515f19600387901b60f8161c191681555b50505050600190811b01905550565b610a15806101d25f395ff3fe608060405234801561000f575f5ffd5b50600436106100c4575f3560e01c806340c10f191161007d5780639dc29fac116100585780639dc29fac1461018f578063a9059cbb146101a2578063dd62ed3e146101b5575f5ffd5b806340c10f191461013d57806370a082311461015257806395d89b4114610187575f5ffd5b806318160ddd116100ad57806318160ddd1461010957806323b872dd1461011b578063313ce5671461012e575f5ffd5b806306fdde03146100c8578063095ea7b3146100e6575b5f5ffd5b6100d06101fa565b6040516100dd9190610828565b60405180910390f35b6100f96100f43660046108a3565b61028a565b60405190151581526020016100dd565b6002545b6040519081526020016100dd565b6100f96101293660046108cb565b6102a3565b604051601281526020016100dd565b61015061014b3660046108a3565b6102c6565b005b61010d610160366004610905565b73ffffffffffffffffffffffffffffffffffffffff165f9081526020819052604090205490565b6100d06102d4565b61015061019d3660046108a3565b6102e3565b6100f96101b03660046108a3565b6102ed565b61010d6101c3366004610925565b73ffffffffffffffffffffffffffffffffffffffff9182165f90815260016020908152604080832093909416825291909152205490565b60606003805461020990610956565b80601f016020809104026020016040519081016040528092919081815260200182805461023590610956565b80156102805780601f1061025757610100808354040283529160200191610280565b820191905f5260205f20905b81548152906001019060200180831161026357829003601f168201915b5050505050905090565b5f336102978185856102fa565b60019150505b92915050565b5f336102b085828561030c565b6102bb8585856103df565b506001949350505050565b6102d08282610488565b5050565b60606004805461020990610956565b6102d082826104e2565b5f336102978185856103df565b610307838383600161053c565b505050565b73ffffffffffffffffffffffffffffffffffffffff8381165f908152600160209081526040808320938616835292905220547fffffffffffffffffffffffffffffffffffffffffffffffffffffffffffffffff8110156103d957818110156103cb576040517ffb8f41b200000000000000000000000000000000000000000000000000000000815273ffffffffffffffffffffffffffffffffffffffff8416600482015260248101829052604481018390526064015b60405180910390fd5b6103d984848484035f61053c565b50505050565b73ffffffffffffffffffffffffffffffffffffffff831661042e576040517f96c6fd1e0000000000000000000000000000000000000000000000000000000081525f60048201526024016103c2565b73ffffffffffffffffffffffffffffffffffffffff821661047d576040517fec442f050000000000000000000000000000000000000000000000000000000081525f60048201526024016103c2565b610307838383610681565b73ffffffffffffffffffffffffffffffffffffffff82166104d7576040517fec442f050000000000000000000000000000000000000000000000000000000081525f60048201526024016103c2565b6102d05f8383610681565b73ffffffffffffffffffffffffffffffffffffffff8216610531576040517f96c6fd1e0000000000000000000000000000000000000000000000000000000081525f60048201526024016103c2565b6102d0825f83610681565b73ffffffffffffffffffffffffffffffffffffffff841661058b576040517fe602df050000000000000000000000000000000000000000000000000000000081525f60048201526024016103c2565b73ffffffffffffffffffffffffffffffffffffffff83166105da576040517f94280d620000000000000000000000000000000000000000000000000000000081525f60048201526024016103c2565b73ffffffffffffffffffffffffffffffffffffffff8085165f90815260016020908152604080832093871683529290522082905580156103d9578273ffffffffffffffffffffffffffffffffffffffff168473ffffffffffffffffffffffffffffffffffffffff167f8c5be1e5ebec7d5bd14f71427d1e84f3dd0314c0f7b2291e5b200ac8c7c3b9258460405161067391815260200190565b60405180910390a350505050565b73ffffffffffffffffffffffffffffffffffffffff83166106b8578060025f8282546106ad91906109a7565b909155506107689050565b73ffffffffffffffffffffffffffffffffffffffff83165f908152602081905260409020548181101561073d576040517fe450d38c00000000000000000000000000000000000000000000000000000000815273ffffffffffffffffffffffffffffffffffffffff8516600482015260248101829052604481018390526064016103c2565b73ffffffffffffffffffffffffffffffffffffffff84165f9081526020819052604090209082900390555b73ffffffffffffffffffffffffffffffffffffffff8216610791576002805482900390556107bc565b73ffffffffffffffffffffffffffffffffffffffff82165f9081526020819052604090208054820190555b8173ffffffffffffffffffffffffffffffffffffffff168373ffffffffffffffffffffffffffffffffffffffff167fddf252ad1be2c89b69c2b068fc378daa952ba7f163c4a11628f55a4df523b3ef8360405161081b91815260200190565b60405180910390a3505050565b602081525f82518060208401528060208501604085015e5f6040828501015260407fffffffffffffffffffffffffffffffffffffffffffffffffffffffffffffffe0601f83011684010191505092915050565b803573ffffffffffffffffffffffffffffffffffffffff8116811461089e575f5ffd5b919050565b5f5f604083850312156108b4575f5ffd5b6108bd8361087b565b946020939093013593505050565b5f5f5f606084860312156108dd575f5ffd5b6108e68461087b565b92506108f46020850161087b565b929592945050506040919091013590565b5f60208284031215610915575f5ffd5b61091e8261087b565b9392505050565b5f5f60408385031215610936575f5ffd5b61093f8361087b565b915061094d6020840161087b565b90509250929050565b600181811c9082168061096a57607f821691505b6020821081036109a1577f4e487b71000000000000000000000000000000000000000000000000000000005f52602260045260245ffd5b50919050565b8082018082111561029d577f4e487b71000000000000000000000000000000000000000000000000000000005f52601160045260245ffdfea264697066735822122099b05dca1033952e716b577f49ff731195f3697ab3f0c5dcde132605035e9c4864736f6c634300081d0033",
        "nonce": "0x3ae",
        "chainId": "0x1"
      },
      "additionalContracts": [],
      "isFixedGasLimit": false
    },
    {
      "hash": "0xc4d50404149fd3a85e6bb0daa15f00d5201011f0526d46ad999dba34d11179b2",
      "transactionType": "CREATE",
      "contractName": "ERC20Mock",
      "contractAddress": "0xda796117bf6905dd8db2ff1ab4397f6d2c4adda3",
      "function": null,
      "arguments": null,
      "transaction": {
        "from": "0xf39fd6e51aad88f6f4ce6ab8827279cfffb92266",
        "gas": "0xd1802",
        "value": "0x0",
        "input": "0x608060405234801561000f575f5ffd5b506040518060400160405280600981526020016845524332304d6f636b60b81b815250604051806040016040528060048152602001634532304d60e01b815250816003908161005e919061010b565b50600461006b828261010b565b5050506101c5565b634e487b7160e01b5f52604160045260245ffd5b600181811c9082168061009b57607f821691505b6020821081036100b957634e487b7160e01b5f52602260045260245ffd5b50919050565b601f82111561010657805f5260205f20601f840160051c810160208510156100e45750805b601f840160051c820191505b81811015610103575f81556001016100f0565b50505b505050565b81516001600160401b0381111561012457610124610073565b610138816101328454610087565b846100bf565b6020601f82116001811461016a575f83156101535750848201515b5f19600385901b1c1916600184901b178455610103565b5f84815260208120601f198516915b828110156101995787850151825560209485019460019092019101610179565b50848210156101b657868401515f19600387901b60f8161c191681555b50505050600190811b01905550565b610a15806101d25f395ff3fe608060405234801561000f575f5ffd5b50600436106100c4575f3560e01c806340c10f191161007d5780639dc29fac116100585780639dc29fac1461018f578063a9059cbb146101a2578063dd62ed3e146101b5575f5ffd5b806340c10f191461013d57806370a082311461015257806395d89b4114610187575f5ffd5b806318160ddd116100ad57806318160ddd1461010957806323b872dd1461011b578063313ce5671461012e575f5ffd5b806306fdde03146100c8578063095ea7b3146100e6575b5f5ffd5b6100d06101fa565b6040516100dd9190610828565b60405180910390f35b6100f96100f43660046108a3565b61028a565b60405190151581526020016100dd565b6002545b6040519081526020016100dd565b6100f96101293660046108cb565b6102a3565b604051601281526020016100dd565b61015061014b3660046108a3565b6102c6565b005b61010d610160366004610905565b73ffffffffffffffffffffffffffffffffffffffff165f9081526020819052604090205490565b6100d06102d4565b61015061019d3660046108a3565b6102e3565b6100f96101b03660046108a3565b6102ed565b61010d6101c3366004610925565b73ffffffffffffffffffffffffffffffffffffffff9182165f90815260016020908152604080832093909416825291909152205490565b60606003805461020990610956565b80601f016020809104026020016040519081016040528092919081815260200182805461023590610956565b80156102805780601f1061025757610100808354040283529160200191610280565b820191905f5260205f20905b81548152906001019060200180831161026357829003601f168201915b5050505050905090565b5f336102978185856102fa565b60019150505b92915050565b5f336102b085828561030c565b6102bb8585856103df565b506001949350505050565b6102d08282610488565b5050565b60606004805461020990610956565b6102d082826104e2565b5f336102978185856103df565b610307838383600161053c565b505050565b73ffffffffffffffffffffffffffffffffffffffff8381165f908152600160209081526040808320938616835292905220547fffffffffffffffffffffffffffffffffffffffffffffffffffffffffffffffff8110156103d957818110156103cb576040517ffb8f41b200000000000000000000000000000000000000000000000000000000815273ffffffffffffffffffffffffffffffffffffffff8416600482015260248101829052604481018390526064015b60405180910390fd5b6103d984848484035f61053c565b50505050565b73ffffffffffffffffffffffffffffffffffffffff831661042e576040517f96c6fd1e0000000000000000000000000000000000000000000000000000000081525f60048201526024016103c2565b73ffffffffffffffffffffffffffffffffffffffff821661047d576040517fec442f050000000000000000000000000000000000000000000000000000000081525f60048201526024016103c2565b610307838383610681565b73ffffffffffffffffffffffffffffffffffffffff82166104d7576040517fec442f050000000000000000000000000000000000000000000000000000000081525f60048201526024016103c2565b6102d05f8383610681565b73ffffffffffffffffffffffffffffffffffffffff8216610531576040517f96c6fd1e0000000000000000000000000000000000000000000000000000000081525f60048201526024016103c2565b6102d0825f83610681565b73ffffffffffffffffffffffffffffffffffffffff841661058b576040517fe602df050000000000000000000000000000000000000000000000000000000081525f60048201526024016103c2565b73ffffffffffffffffffffffffffffffffffffffff83166105da576040517f94280d620000000000000000000000000000000000000000000000000000000081525f60048201526024016103c2565b73ffffffffffffffffffffffffffffffffffffffff8085165f90815260016020908152604080832093871683529290522082905580156103d9578273ffffffffffffffffffffffffffffffffffffffff168473ffffffffffffffffffffffffffffffffffffffff167f8c5be1e5ebec7d5bd14f71427d1e84f3dd0314c0f7b2291e5b200ac8c7c3b9258460405161067391815260200190565b60405180910390a350505050565b73ffffffffffffffffffffffffffffffffffffffff83166106b8578060025f8282546106ad91906109a7565b909155506107689050565b73ffffffffffffffffffffffffffffffffffffffff83165f908152602081905260409020548181101561073d576040517fe450d38c00000000000000000000000000000000000000000000000000000000815273ffffffffffffffffffffffffffffffffffffffff8516600482015260248101829052604481018390526064016103c2565b73ffffffffffffffffffffffffffffffffffffffff84165f9081526020819052604090209082900390555b73ffffffffffffffffffffffffffffffffffffffff8216610791576002805482900390556107bc565b73ffffffffffffffffffffffffffffffffffffffff82165f9081526020819052604090208054820190555b8173ffffffffffffffffffffffffffffffffffffffff168373ffffffffffffffffffffffffffffffffffffffff167fddf252ad1be2c89b69c2b068fc378daa952ba7f163c4a11628f55a4df523b3ef8360405161081b91815260200190565b60405180910390a3505050565b602081525f82518060208401528060208501604085015e5f6040828501015260407fffffffffffffffffffffffffffffffffffffffffffffffffffffffffffffffe0601f83011684010191505092915050565b803573ffffffffffffffffffffffffffffffffffffffff8116811461089e575f5ffd5b919050565b5f5f604083850312156108b4575f5ffd5b6108bd8361087b565b946020939093013593505050565b5f5f5f606084860312156108dd575f5ffd5b6108e68461087b565b92506108f46020850161087b565b929592945050506040919091013590565b5f60208284031215610915575f5ffd5b61091e8261087b565b9392505050565b5f5f60408385031215610936575f5ffd5b61093f8361087b565b915061094d6020840161087b565b90509250929050565b600181811c9082168061096a57607f821691505b6020821081036109a1577f4e487b71000000000000000000000000000000000000000000000000000000005f52602260045260245ffd5b50919050565b8082018082111561029d577f4e487b71000000000000000000000000000000000000000000000000000000005f52601160045260245ffdfea264697066735822122099b05dca1033952e716b577f49ff731195f3697ab3f0c5dcde132605035e9c4864736f6c634300081d0033",
        "nonce": "0x3af",
        "chainId": "0x1"
      },
      "additionalContracts": [],
      "isFixedGasLimit": false
    },
    {
      "hash": "0xdaa78683269cd1deeee7cb43e0d9771c984db04e5fb27ff16e5f1bd375e2553c",
      "transactionType": "CALL",
      "contractName": "ERC20Mock",
      "contractAddress": "0x2c56932223cde0d363266f1308c48ff1bf9f9041",
      "function": "mint(address,uint256)",
      "arguments": [
        "0xf39Fd6e51aad88F6F4ce6aB8827279cffFb92266",
        "100000000"
      ],
      "transaction": {
        "from": "0xf39fd6e51aad88f6f4ce6ab8827279cfffb92266",
        "to": "0x2c56932223cde0d363266f1308c48ff1bf9f9041",
        "gas": "0x1709b",
        "value": "0x0",
        "input": "0x40c10f19000000000000000000000000f39fd6e51aad88f6f4ce6ab8827279cfffb922660000000000000000000000000000000000000000000000000000000005f5e100",
        "nonce": "0x3b0",
        "chainId": "0x1"
      },
      "additionalContracts": [],
      "isFixedGasLimit": false
    },
    {
      "hash": "0x398d84cbca557711fe34831085ab741dae72d5e6122a187fa5016dee65a1ac00",
      "transactionType": "CALL",
      "contractName": "ERC20Mock",
      "contractAddress": "0x91c8c745fd156d8624677aa924cdc1ef8173c69c",
      "function": "mint(address,uint256)",
      "arguments": [
        "0xf39Fd6e51aad88F6F4ce6aB8827279cffFb92266",
        "100000000"
      ],
      "transaction": {
        "from": "0xf39fd6e51aad88f6f4ce6ab8827279cfffb92266",
        "to": "0x91c8c745fd156d8624677aa924cdc1ef8173c69c",
        "gas": "0x1709b",
        "value": "0x0",
        "input": "0x40c10f19000000000000000000000000f39fd6e51aad88f6f4ce6ab8827279cfffb922660000000000000000000000000000000000000000000000000000000005f5e100",
        "nonce": "0x3b1",
        "chainId": "0x1"
      },
      "additionalContracts": [],
      "isFixedGasLimit": false
    },
    {
      "hash": "0x2fbfa252b981ff873d97c34e07aace075bed9c4788f4988dcec899dffa4fb13c",
      "transactionType": "CALL",
      "contractName": "ERC20Mock",
      "contractAddress": "0xda796117bf6905dd8db2ff1ab4397f6d2c4adda3",
      "function": "mint(address,uint256)",
      "arguments": [
        "0xf39Fd6e51aad88F6F4ce6aB8827279cffFb92266",
        "100000000"
      ],
      "transaction": {
        "from": "0xf39fd6e51aad88f6f4ce6ab8827279cfffb92266",
        "to": "0xda796117bf6905dd8db2ff1ab4397f6d2c4adda3",
        "gas": "0x1709b",
        "value": "0x0",
        "input": "0x40c10f19000000000000000000000000f39fd6e51aad88f6f4ce6ab8827279cfffb922660000000000000000000000000000000000000000000000000000000005f5e100",
        "nonce": "0x3b2",
        "chainId": "0x1"
      },
      "additionalContracts": [],
      "isFixedGasLimit": false
    },
    {
      "hash": "0xa5fc1bbe5dff5747b8363c84b628736c0a47784e70ed5e428595439811ca0f65",
      "transactionType": "CALL",
      "contractName": "ERC20Mock",
      "contractAddress": "0x2c56932223cde0d363266f1308c48ff1bf9f9041",
      "function": "approve(address,uint256)",
      "arguments": [
        "0xc565EB7363769f8ffAe0005285ccD854c631A0a0",
        "100000000"
      ],
      "transaction": {
        "from": "0xf39fd6e51aad88f6f4ce6ab8827279cfffb92266",
        "to": "0x2c56932223cde0d363266f1308c48ff1bf9f9041",
        "gas": "0xf9a4",
        "value": "0x0",
        "input": "0x095ea7b3000000000000000000000000c565eb7363769f8ffae0005285ccd854c631a0a00000000000000000000000000000000000000000000000000000000005f5e100",
        "nonce": "0x3b3",
        "chainId": "0x1"
      },
      "additionalContracts": [],
      "isFixedGasLimit": false
    },
    {
      "hash": "0xe386cf9df1b0d86e65da20674489f7762301a59d5251aa28e2ad5778ec85060b",
      "transactionType": "CALL",
      "contractName": "ERC20Mock",
      "contractAddress": "0x91c8c745fd156d8624677aa924cdc1ef8173c69c",
      "function": "approve(address,uint256)",
      "arguments": [
        "0xc565EB7363769f8ffAe0005285ccD854c631A0a0",
        "100000000"
      ],
      "transaction": {
        "from": "0xf39fd6e51aad88f6f4ce6ab8827279cfffb92266",
        "to": "0x91c8c745fd156d8624677aa924cdc1ef8173c69c",
        "gas": "0xf9a4",
        "value": "0x0",
        "input": "0x095ea7b3000000000000000000000000c565eb7363769f8ffae0005285ccd854c631a0a00000000000000000000000000000000000000000000000000000000005f5e100",
        "nonce": "0x3b4",
        "chainId": "0x1"
      },
      "additionalContracts": [],
      "isFixedGasLimit": false
    },
    {
      "hash": "0x7ff648b7ed52b986f6ede1caab2928808b24b04c9b4a8cee9c827c927a42ab69",
      "transactionType": "CALL",
      "contractName": "ERC20Mock",
      "contractAddress": "0xda796117bf6905dd8db2ff1ab4397f6d2c4adda3",
      "function": "approve(address,uint256)",
      "arguments": [
        "0xc565EB7363769f8ffAe0005285ccD854c631A0a0",
        "100000000"
      ],
      "transaction": {
        "from": "0xf39fd6e51aad88f6f4ce6ab8827279cfffb92266",
        "to": "0xda796117bf6905dd8db2ff1ab4397f6d2c4adda3",
        "gas": "0xf9a4",
        "value": "0x0",
        "input": "0x095ea7b3000000000000000000000000c565eb7363769f8ffae0005285ccd854c631a0a00000000000000000000000000000000000000000000000000000000005f5e100",
        "nonce": "0x3b5",
        "chainId": "0x1"
      },
      "additionalContracts": [],
      "isFixedGasLimit": false
    },
    {
      "hash": "0xd49e0b7c7b5dd281898fe07b083a8bbfc6bbf6792f10c0bcffd3f1b9e45861e6",
      "transactionType": "CALL",
      "contractName": "PiscineV1Exchange",
      "contractAddress": "0xc565eb7363769f8ffae0005285ccd854c631a0a0",
      "function": "addLiquidity(address,address,uint256,uint256)",
      "arguments": [
        "0x2C56932223cdE0D363266f1308c48Ff1BF9F9041",
        "0x91c8C745fd156d8624677aa924Cdc1Ef8173C69C",
        "10000000",
        "10000000"
      ],
      "transaction": {
        "from": "0xf39fd6e51aad88f6f4ce6ab8827279cfffb92266",
        "to": "0xc565eb7363769f8ffae0005285ccd854c631a0a0",
        "gas": "0x2143d1",
        "value": "0x0",
        "input": "0xcf6c62ea0000000000000000000000002c56932223cde0d363266f1308c48ff1bf9f904100000000000000000000000091c8c745fd156d8624677aa924cdc1ef8173c69c00000000000000000000000000000000000000000000000000000000009896800000000000000000000000000000000000000000000000000000000000989680",
        "nonce": "0x3b6",
        "chainId": "0x1"
      },
      "additionalContracts": [
        {
          "transactionType": "CREATE2",
          "address": "0xe69c18b54bbd6952684b7b0e7d49472b371bbd8c",
          "initCode": "0x60c060405234801561000f575f5ffd5b50604051611ac0380380611ac083398101604081905261002e916100c4565b6040518060400160405280601081526020016f2834b9b1b4b732902628102a37b5b2b760811b815250604051806040016040528060038152602001620504c560ec1b8152508160039081610082919061018d565b50600461008f828261018d565b5050506001600160a01b039182166080521660a052610247565b80516001600160a01b03811681146100bf575f5ffd5b919050565b5f5f604083850312156100d5575f5ffd5b6100de836100a9565b91506100ec602084016100a9565b90509250929050565b634e487b7160e01b5f52604160045260245ffd5b600181811c9082168061011d57607f821691505b60208210810361013b57634e487b7160e01b5f52602260045260245ffd5b50919050565b601f82111561018857805f5260205f20601f840160051c810160208510156101665750805b601f840160051c820191505b81811015610185575f8155600101610172565b50505b505050565b81516001600160401b038111156101a6576101a66100f5565b6101ba816101b48454610109565b84610141565b6020601f8211600181146101ec575f83156101d55750848201515b5f19600385901b1c1916600184901b178455610185565b5f84815260208120601f198516915b8281101561021b57878501518255602094850194600190920191016101fb565b508482101561023857868401515f19600387901b60f8161c191681555b50505050600190811b01905550565b60805160a0516117e86102d85f395f81816102320152818161035201528181610411015281816104af015281816106830152818161072a0152818161099a01528181610a8d0152610c8b01525f818161014f015281816102ec015281816103b80152818161046e0152818161061b015281816106b5015281816106f8015281816109680152610c3201526117e85ff3fe608060405234801561000f575f5ffd5b50600436106100f0575f3560e01c806370a0823111610093578063d21220a711610063578063d21220a71461022d578063dd62ed3e14610254578063e3412e3d14610299578063ea4454a4146102ac575f5ffd5b806370a08231146101ca57806395d89b41146101ff578063a9059cbb14610207578063cbc787981461021a575f5ffd5b80630dfe1681116100ce5780630dfe16811461014a57806318160ddd1461019657806323b872dd146101a8578063313ce567146101bb575f5ffd5b806305fe138b146100f457806306fdde0314610109578063095ea7b314610127575b5f5ffd5b610107610102366004611522565b6102cb565b005b61011161052e565b60405161011e919061154c565b60405180910390f35b61013a61013536600461159f565b6105be565b604051901515815260200161011e565b6101717f000000000000000000000000000000000000000000000000000000000000000081565b60405173ffffffffffffffffffffffffffffffffffffffff909116815260200161011e565b6002545b60405190815260200161011e565b61013a6101b63660046115c7565b6105d7565b6040516012815260200161011e565b61019a6101d8366004611601565b73ffffffffffffffffffffffffffffffffffffffff165f9081526020819052604090205490565b6101116105fa565b61013a61021536600461159f565b610609565b61010761022836600461161a565b610616565b6101717f000000000000000000000000000000000000000000000000000000000000000081565b61019a610262366004611653565b73ffffffffffffffffffffffffffffffffffffffff9182165f90815260016020908152604080832093909416825291909152205490565b6101076102a7366004611601565b610951565b61019a6102ba366004611601565b60056020525f908152604090205481565b5f6102d560025490565b73ffffffffffffffffffffffffffffffffffffffff7f0000000000000000000000000000000000000000000000000000000000000000165f908152600560205260409020546103259085906116a8565b61032f91906116ec565b90505f61033b60025490565b73ffffffffffffffffffffffffffffffffffffffff7f0000000000000000000000000000000000000000000000000000000000000000165f9081526005602052604090205461038b9086906116a8565b61039591906116ec565b90506103a18385610d29565b73ffffffffffffffffffffffffffffffffffffffff7f0000000000000000000000000000000000000000000000000000000000000000165f90815260056020526040812080548492906103f5908490611724565b909155505073ffffffffffffffffffffffffffffffffffffffff7f0000000000000000000000000000000000000000000000000000000000000000165f908152600560205260408120805483929061044e908490611724565b90915550610495905073ffffffffffffffffffffffffffffffffffffffff7f0000000000000000000000000000000000000000000000000000000000000000168484610d8c565b6104d673ffffffffffffffffffffffffffffffffffffffff7f0000000000000000000000000000000000000000000000000000000000000000168483610d8c565b80828473ffffffffffffffffffffffffffffffffffffffff167f1dc8bb69df2b8e91fbdcbfcf93d951b3f0000f085a95fe3f7946d6161439245d8760405161052091815260200190565b60405180910390a450505050565b60606003805461053d90611737565b80601f016020809104026020016040519081016040528092919081815260200182805461056990611737565b80156105b45780601f1061058b576101008083540402835291602001916105b4565b820191905f5260205f20905b81548152906001019060200180831161059757829003601f168201915b5050505050905090565b5f336105cb818585610e1e565b60019150505b92915050565b5f336105e4858285610e2b565b6105ef858585610ef9565b506001949350505050565b60606004805461053d90611737565b5f336105cb818585610ef9565b5f5f5f7f000000000000000000000000000000000000000000000000000000000000000073ffffffffffffffffffffffffffffffffffffffff168673ffffffffffffffffffffffffffffffffffffffff16146106e15773ffffffffffffffffffffffffffffffffffffffff7f000000000000000000000000000000000000000000000000000000000000000081165f90815260056020526040808220547f00000000000000000000000000000000000000000000000000000000000000009384168352912054610752565b73ffffffffffffffffffffffffffffffffffffffff7f000000000000000000000000000000000000000000000000000000000000000081165f90815260056020526040808220547f000000000000000000000000000000000000000000000000000000000000000093841683529120545b6040517f70a0823100000000000000000000000000000000000000000000000000000000815230600482015292955090935091505f90839073ffffffffffffffffffffffffffffffffffffffff8916906370a0823190602401602060405180830381865afa1580156107c6573d5f5f3e3d5ffd5b505050506040513d601f19601f820116820180604052508101906107ea9190611788565b6107f49190611724565b90505f6103e8610806836103e56116a8565b61081091906116ec565b90505f61081d828661179f565b61082783866116a8565b61083191906116ec565b90508781101561086d576040517f42301c2300000000000000000000000000000000000000000000000000000000815260040160405180910390fd5b73ffffffffffffffffffffffffffffffffffffffff89165f90815260056020526040812080548592906108a190849061179f565b909155505073ffffffffffffffffffffffffffffffffffffffff86165f90815260056020526040812080548392906108da908490611724565b90915550610901905073ffffffffffffffffffffffffffffffffffffffff87168883610d8c565b80838873ffffffffffffffffffffffffffffffffffffffff167f18704ae982dcd24a1beeeed3ecf045ab0520d7b7519b97adf3e4f40bf7efe33960405160405180910390a4505050505050505050565b73ffffffffffffffffffffffffffffffffffffffff7f000000000000000000000000000000000000000000000000000000000000000081165f81815260056020526040808220547f000000000000000000000000000000000000000000000000000000000000000090941682528082205490517f70a08231000000000000000000000000000000000000000000000000000000008152306004820152909284916370a0823190602401602060405180830381865afa158015610a15573d5f5f3e3d5ffd5b505050506040513d601f19601f82011682018060405250810190610a399190611788565b610a439190611724565b6040517f70a082310000000000000000000000000000000000000000000000000000000081523060048201529091505f90839073ffffffffffffffffffffffffffffffffffffffff7f000000000000000000000000000000000000000000000000000000000000000016906370a0823190602401602060405180830381865afa158015610ad2573d5f5f3e3d5ffd5b505050506040513d601f19601f82011682018060405250810190610af69190611788565b610b009190611724565b90505f845f03610b2357610b1c610b1783856116a8565b610fa2565b9050610c11565b5f84610b3787670de0b6b3a76400006116a8565b610b4191906116ec565b90505f83610b5786670de0b6b3a76400006116a8565b610b6191906116ec565b90505f610b6f6064846116ec565b9050610b7b818461179f565b821180610b905750610b8d8184611724565b82105b15610bc7576040517f648564d300000000000000000000000000000000000000000000000000000000815260040160405180910390fd5b610c0b88610bd460025490565b610bde90896116a8565b610be891906116ec565b88610bf260025490565b610bfc90896116a8565b610c0691906116ec565b611107565b93505050505b610c1b8682611119565b73ffffffffffffffffffffffffffffffffffffffff7f0000000000000000000000000000000000000000000000000000000000000000165f9081526005602052604081208054859290610c6f90849061179f565b909155505073ffffffffffffffffffffffffffffffffffffffff7f0000000000000000000000000000000000000000000000000000000000000000165f9081526005602052604081208054849290610cc890849061179f565b9250508190555081838773ffffffffffffffffffffffffffffffffffffffff167f64b83944e79c3ce8d4c297411de637c3e102d064677aac0c163976ebdcd6f50e84604051610d1991815260200190565b60405180910390a4505050505050565b73ffffffffffffffffffffffffffffffffffffffff8216610d7d576040517f96c6fd1e0000000000000000000000000000000000000000000000000000000081525f60048201526024015b60405180910390fd5b610d88825f8361116f565b5050565b6040805173ffffffffffffffffffffffffffffffffffffffff8416602482015260448082018490528251808303909101815260649091019091526020810180517bffffffffffffffffffffffffffffffffffffffffffffffffffffffff167fa9059cbb00000000000000000000000000000000000000000000000000000000179052610e19908490611316565b505050565b610e1983838360016113b5565b73ffffffffffffffffffffffffffffffffffffffff8381165f908152600160209081526040808320938616835292905220547fffffffffffffffffffffffffffffffffffffffffffffffffffffffffffffffff811015610ef35781811015610ee5576040517ffb8f41b200000000000000000000000000000000000000000000000000000000815273ffffffffffffffffffffffffffffffffffffffff841660048201526024810182905260448101839052606401610d74565b610ef384848484035f6113b5565b50505050565b73ffffffffffffffffffffffffffffffffffffffff8316610f48576040517f96c6fd1e0000000000000000000000000000000000000000000000000000000081525f6004820152602401610d74565b73ffffffffffffffffffffffffffffffffffffffff8216610f97576040517fec442f050000000000000000000000000000000000000000000000000000000081525f6004820152602401610d74565b610e1983838361116f565b5f60018211610faf575090565b8160017001000000000000000000000000000000008210610fd55760809190911c9060401b5b680100000000000000008210610ff05760409190911c9060201b5b64010000000082106110075760209190911c9060101b5b62010000821061101c5760109190911c9060081b5b61010082106110305760089190911c9060041b5b601082106110435760049190911c9060021b5b6004821061104f5760011b5b600302600190811c90818581611067576110676116bf565b048201901c9050600181858161107f5761107f6116bf565b048201901c90506001818581611097576110976116bf565b048201901c905060018185816110af576110af6116bf565b048201901c905060018185816110c7576110c76116bf565b048201901c905060018185816110df576110df6116bf565b048201901c90506110fe8185816110f8576110f86116bf565b04821190565b90039392505050565b5f8282188284100282185b9392505050565b73ffffffffffffffffffffffffffffffffffffffff8216611168576040517fec442f050000000000000000000000000000000000000000000000000000000081525f6004820152602401610d74565b610d885f83835b73ffffffffffffffffffffffffffffffffffffffff83166111a6578060025f82825461119b919061179f565b909155506112569050565b73ffffffffffffffffffffffffffffffffffffffff83165f908152602081905260409020548181101561122b576040517fe450d38c00000000000000000000000000000000000000000000000000000000815273ffffffffffffffffffffffffffffffffffffffff851660048201526024810182905260448101839052606401610d74565b73ffffffffffffffffffffffffffffffffffffffff84165f9081526020819052604090209082900390555b73ffffffffffffffffffffffffffffffffffffffff821661127f576002805482900390556112aa565b73ffffffffffffffffffffffffffffffffffffffff82165f9081526020819052604090208054820190555b8173ffffffffffffffffffffffffffffffffffffffff168373ffffffffffffffffffffffffffffffffffffffff167fddf252ad1be2c89b69c2b068fc378daa952ba7f163c4a11628f55a4df523b3ef8360405161130991815260200190565b60405180910390a3505050565b5f5f60205f8451602086015f885af180611335576040513d5f823e3d81fd5b50505f513d9150811561134c578060011415611366565b73ffffffffffffffffffffffffffffffffffffffff84163b155b15610ef3576040517f5274afe700000000000000000000000000000000000000000000000000000000815273ffffffffffffffffffffffffffffffffffffffff85166004820152602401610d74565b73ffffffffffffffffffffffffffffffffffffffff8416611404576040517fe602df050000000000000000000000000000000000000000000000000000000081525f6004820152602401610d74565b73ffffffffffffffffffffffffffffffffffffffff8316611453576040517f94280d620000000000000000000000000000000000000000000000000000000081525f6004820152602401610d74565b73ffffffffffffffffffffffffffffffffffffffff8085165f9081526001602090815260408083209387168352929052208290558015610ef3578273ffffffffffffffffffffffffffffffffffffffff168473ffffffffffffffffffffffffffffffffffffffff167f8c5be1e5ebec7d5bd14f71427d1e84f3dd0314c0f7b2291e5b200ac8c7c3b925846040516114ec91815260200190565b60405180910390a350505050565b803573ffffffffffffffffffffffffffffffffffffffff8116811461151d575f5ffd5b919050565b5f5f60408385031215611533575f5ffd5b82359150611543602084016114fa565b90509250929050565b602081525f82518060208401528060208501604085015e5f6040828501015260407fffffffffffffffffffffffffffffffffffffffffffffffffffffffffffffffe0601f83011684010191505092915050565b5f5f604083850312156115b0575f5ffd5b6115b9836114fa565b946020939093013593505050565b5f5f5f606084860312156115d9575f5ffd5b6115e2846114fa565b92506115f0602085016114fa565b929592945050506040919091013590565b5f60208284031215611611575f5ffd5b611112826114fa565b5f5f5f6060848603121561162c575f5ffd5b611635846114fa565b92506020840135915061164a604085016114fa565b90509250925092565b5f5f60408385031215611664575f5ffd5b61166d836114fa565b9150611543602084016114fa565b7f4e487b71000000000000000000000000000000000000000000000000000000005f52601160045260245ffd5b80820281158282048414176105d1576105d161167b565b7f4e487b71000000000000000000000000000000000000000000000000000000005f52601260045260245ffd5b5f8261171f577f4e487b71000000000000000000000000000000000000000000000000000000005f52601260045260245ffd5b500490565b818103818111156105d1576105d161167b565b600181811c9082168061174b57607f821691505b602082108103611782577f4e487b71000000000000000000000000000000000000000000000000000000005f52602260045260245ffd5b50919050565b5f60208284031215611798575f5ffd5b5051919050565b808201808211156105d1576105d161167b56fea2646970667358221220049d73e7b88a453d9a3a019ab9e2112ac38a9fd2931c8d938ac142e14b499d9064736f6c634300081d00330000000000000000000000002c56932223cde0d363266f1308c48ff1bf9f904100000000000000000000000091c8c745fd156d8624677aa924cdc1ef8173c69c"
        }
      ],
      "isFixedGasLimit": false
    },
    {
      "hash": "0x3567cf010288b1d8b0a5ccb45caa6e42f35a0ccf87442371fc6727c4f7505dfd",
      "transactionType": "CALL",
      "contractName": "PiscineV1Exchange",
      "contractAddress": "0xc565eb7363769f8ffae0005285ccd854c631a0a0",
      "function": "addLiquidity(address,address,uint256,uint256)",
      "arguments": [
        "0x2C56932223cdE0D363266f1308c48Ff1BF9F9041",
        "0xdA796117bF6905DD8DB2fF1ab4397f6d2c4ADda3",
        "20000000",
        "40000000"
      ],
      "transaction": {
        "from": "0xf39fd6e51aad88f6f4ce6ab8827279cfffb92266",
        "to": "0xc565eb7363769f8ffae0005285ccd854c631a0a0",
        "gas": "0x22d6e3",
        "value": "0x0",
        "input": "0xcf6c62ea0000000000000000000000002c56932223cde0d363266f1308c48ff1bf9f9041000000000000000000000000da796117bf6905dd8db2ff1ab4397f6d2c4adda30000000000000000000000000000000000000000000000000000000001312d000000000000000000000000000000000000000000000000000000000002625a00",
        "nonce": "0x3b7",
        "chainId": "0x1"
      },
      "additionalContracts": [
        {
          "transactionType": "CREATE2",
          "address": "0x895ff517fbfe6f2094a5a853e992f176389a2a3f",
          "initCode": "0x60c060405234801561000f575f5ffd5b50604051611ac0380380611ac083398101604081905261002e916100c4565b6040518060400160405280601081526020016f2834b9b1b4b732902628102a37b5b2b760811b815250604051806040016040528060038152602001620504c560ec1b8152508160039081610082919061018d565b50600461008f828261018d565b5050506001600160a01b039182166080521660a052610247565b80516001600160a01b03811681146100bf575f5ffd5b919050565b5f5f604083850312156100d5575f5ffd5b6100de836100a9565b91506100ec602084016100a9565b90509250929050565b634e487b7160e01b5f52604160045260245ffd5b600181811c9082168061011d57607f821691505b60208210810361013b57634e487b7160e01b5f52602260045260245ffd5b50919050565b601f82111561018857805f5260205f20601f840160051c810160208510156101665750805b601f840160051c820191505b81811015610185575f8155600101610172565b50505b505050565b81516001600160401b038111156101a6576101a66100f5565b6101ba816101b48454610109565b84610141565b6020601f8211600181146101ec575f83156101d55750848201515b5f19600385901b1c1916600184901b178455610185565b5f84815260208120601f198516915b8281101561021b57878501518255602094850194600190920191016101fb565b508482101561023857868401515f19600387901b60f8161c191681555b50505050600190811b01905550565b60805160a0516117e86102d85f395f81816102320152818161035201528181610411015281816104af015281816106830152818161072a0152818161099a01528181610a8d0152610c8b01525f818161014f015281816102ec015281816103b80152818161046e0152818161061b015281816106b5015281816106f8015281816109680152610c3201526117e85ff3fe608060405234801561000f575f5ffd5b50600436106100f0575f3560e01c806370a0823111610093578063d21220a711610063578063d21220a71461022d578063dd62ed3e14610254578063e3412e3d14610299578063ea4454a4146102ac575f5ffd5b806370a08231146101ca57806395d89b41146101ff578063a9059cbb14610207578063cbc787981461021a575f5ffd5b80630dfe1681116100ce5780630dfe16811461014a57806318160ddd1461019657806323b872dd146101a8578063313ce567146101bb575f5ffd5b806305fe138b146100f457806306fdde0314610109578063095ea7b314610127575b5f5ffd5b610107610102366004611522565b6102cb565b005b61011161052e565b60405161011e919061154c565b60405180910390f35b61013a61013536600461159f565b6105be565b604051901515815260200161011e565b6101717f000000000000000000000000000000000000000000000000000000000000000081565b60405173ffffffffffffffffffffffffffffffffffffffff909116815260200161011e565b6002545b60405190815260200161011e565b61013a6101b63660046115c7565b6105d7565b6040516012815260200161011e565b61019a6101d8366004611601565b73ffffffffffffffffffffffffffffffffffffffff165f9081526020819052604090205490565b6101116105fa565b61013a61021536600461159f565b610609565b61010761022836600461161a565b610616565b6101717f000000000000000000000000000000000000000000000000000000000000000081565b61019a610262366004611653565b73ffffffffffffffffffffffffffffffffffffffff9182165f90815260016020908152604080832093909416825291909152205490565b6101076102a7366004611601565b610951565b61019a6102ba366004611601565b60056020525f908152604090205481565b5f6102d560025490565b73ffffffffffffffffffffffffffffffffffffffff7f0000000000000000000000000000000000000000000000000000000000000000165f908152600560205260409020546103259085906116a8565b61032f91906116ec565b90505f61033b60025490565b73ffffffffffffffffffffffffffffffffffffffff7f0000000000000000000000000000000000000000000000000000000000000000165f9081526005602052604090205461038b9086906116a8565b61039591906116ec565b90506103a18385610d29565b73ffffffffffffffffffffffffffffffffffffffff7f0000000000000000000000000000000000000000000000000000000000000000165f90815260056020526040812080548492906103f5908490611724565b909155505073ffffffffffffffffffffffffffffffffffffffff7f0000000000000000000000000000000000000000000000000000000000000000165f908152600560205260408120805483929061044e908490611724565b90915550610495905073ffffffffffffffffffffffffffffffffffffffff7f0000000000000000000000000000000000000000000000000000000000000000168484610d8c565b6104d673ffffffffffffffffffffffffffffffffffffffff7f0000000000000000000000000000000000000000000000000000000000000000168483610d8c565b80828473ffffffffffffffffffffffffffffffffffffffff167f1dc8bb69df2b8e91fbdcbfcf93d951b3f0000f085a95fe3f7946d6161439245d8760405161052091815260200190565b60405180910390a450505050565b60606003805461053d90611737565b80601f016020809104026020016040519081016040528092919081815260200182805461056990611737565b80156105b45780601f1061058b576101008083540402835291602001916105b4565b820191905f5260205f20905b81548152906001019060200180831161059757829003601f168201915b5050505050905090565b5f336105cb818585610e1e565b60019150505b92915050565b5f336105e4858285610e2b565b6105ef858585610ef9565b506001949350505050565b60606004805461053d90611737565b5f336105cb818585610ef9565b5f5f5f7f000000000000000000000000000000000000000000000000000000000000000073ffffffffffffffffffffffffffffffffffffffff168673ffffffffffffffffffffffffffffffffffffffff16146106e15773ffffffffffffffffffffffffffffffffffffffff7f000000000000000000000000000000000000000000000000000000000000000081165f90815260056020526040808220547f00000000000000000000000000000000000000000000000000000000000000009384168352912054610752565b73ffffffffffffffffffffffffffffffffffffffff7f000000000000000000000000000000000000000000000000000000000000000081165f90815260056020526040808220547f000000000000000000000000000000000000000000000000000000000000000093841683529120545b6040517f70a0823100000000000000000000000000000000000000000000000000000000815230600482015292955090935091505f90839073ffffffffffffffffffffffffffffffffffffffff8916906370a0823190602401602060405180830381865afa1580156107c6573d5f5f3e3d5ffd5b505050506040513d601f19601f820116820180604052508101906107ea9190611788565b6107f49190611724565b90505f6103e8610806836103e56116a8565b61081091906116ec565b90505f61081d828661179f565b61082783866116a8565b61083191906116ec565b90508781101561086d576040517f42301c2300000000000000000000000000000000000000000000000000000000815260040160405180910390fd5b73ffffffffffffffffffffffffffffffffffffffff89165f90815260056020526040812080548592906108a190849061179f565b909155505073ffffffffffffffffffffffffffffffffffffffff86165f90815260056020526040812080548392906108da908490611724565b90915550610901905073ffffffffffffffffffffffffffffffffffffffff87168883610d8c565b80838873ffffffffffffffffffffffffffffffffffffffff167f18704ae982dcd24a1beeeed3ecf045ab0520d7b7519b97adf3e4f40bf7efe33960405160405180910390a4505050505050505050565b73ffffffffffffffffffffffffffffffffffffffff7f000000000000000000000000000000000000000000000000000000000000000081165f81815260056020526040808220547f000000000000000000000000000000000000000000000000000000000000000090941682528082205490517f70a08231000000000000000000000000000000000000000000000000000000008152306004820152909284916370a0823190602401602060405180830381865afa158015610a15573d5f5f3e3d5ffd5b505050506040513d601f19601f82011682018060405250810190610a399190611788565b610a439190611724565b6040517f70a082310000000000000000000000000000000000000000000000000000000081523060048201529091505f90839073ffffffffffffffffffffffffffffffffffffffff7f000000000000000000000000000000000000000000000000000000000000000016906370a0823190602401602060405180830381865afa158015610ad2573d5f5f3e3d5ffd5b505050506040513d601f19601f82011682018060405250810190610af69190611788565b610b009190611724565b90505f845f03610b2357610b1c610b1783856116a8565b610fa2565b9050610c11565b5f84610b3787670de0b6b3a76400006116a8565b610b4191906116ec565b90505f83610b5786670de0b6b3a76400006116a8565b610b6191906116ec565b90505f610b6f6064846116ec565b9050610b7b818461179f565b821180610b905750610b8d8184611724565b82105b15610bc7576040517f648564d300000000000000000000000000000000000000000000000000000000815260040160405180910390fd5b610c0b88610bd460025490565b610bde90896116a8565b610be891906116ec565b88610bf260025490565b610bfc90896116a8565b610c0691906116ec565b611107565b93505050505b610c1b8682611119565b73ffffffffffffffffffffffffffffffffffffffff7f0000000000000000000000000000000000000000000000000000000000000000165f9081526005602052604081208054859290610c6f90849061179f565b909155505073ffffffffffffffffffffffffffffffffffffffff7f0000000000000000000000000000000000000000000000000000000000000000165f9081526005602052604081208054849290610cc890849061179f565b9250508190555081838773ffffffffffffffffffffffffffffffffffffffff167f64b83944e79c3ce8d4c297411de637c3e102d064677aac0c163976ebdcd6f50e84604051610d1991815260200190565b60405180910390a4505050505050565b73ffffffffffffffffffffffffffffffffffffffff8216610d7d576040517f96c6fd1e0000000000000000000000000000000000000000000000000000000081525f60048201526024015b60405180910390fd5b610d88825f8361116f565b5050565b6040805173ffffffffffffffffffffffffffffffffffffffff8416602482015260448082018490528251808303909101815260649091019091526020810180517bffffffffffffffffffffffffffffffffffffffffffffffffffffffff167fa9059cbb00000000000000000000000000000000000000000000000000000000179052610e19908490611316565b505050565b610e1983838360016113b5565b73ffffffffffffffffffffffffffffffffffffffff8381165f908152600160209081526040808320938616835292905220547fffffffffffffffffffffffffffffffffffffffffffffffffffffffffffffffff811015610ef35781811015610ee5576040517ffb8f41b200000000000000000000000000000000000000000000000000000000815273ffffffffffffffffffffffffffffffffffffffff841660048201526024810182905260448101839052606401610d74565b610ef384848484035f6113b5565b50505050565b73ffffffffffffffffffffffffffffffffffffffff8316610f48576040517f96c6fd1e0000000000000000000000000000000000000000000000000000000081525f6004820152602401610d74565b73ffffffffffffffffffffffffffffffffffffffff8216610f97576040517fec442f050000000000000000000000000000000000000000000000000000000081525f6004820152602401610d74565b610e1983838361116f565b5f60018211610faf575090565b8160017001000000000000000000000000000000008210610fd55760809190911c9060401b5b680100000000000000008210610ff05760409190911c9060201b5b64010000000082106110075760209190911c9060101b5b62010000821061101c5760109190911c9060081b5b61010082106110305760089190911c9060041b5b601082106110435760049190911c9060021b5b6004821061104f5760011b5b600302600190811c90818581611067576110676116bf565b048201901c9050600181858161107f5761107f6116bf565b048201901c90506001818581611097576110976116bf565b048201901c905060018185816110af576110af6116bf565b048201901c905060018185816110c7576110c76116bf565b048201901c905060018185816110df576110df6116bf565b048201901c90506110fe8185816110f8576110f86116bf565b04821190565b90039392505050565b5f8282188284100282185b9392505050565b73ffffffffffffffffffffffffffffffffffffffff8216611168576040517fec442f050000000000000000000000000000000000000000000000000000000081525f6004820152602401610d74565b610d885f83835b73ffffffffffffffffffffffffffffffffffffffff83166111a6578060025f82825461119b919061179f565b909155506112569050565b73ffffffffffffffffffffffffffffffffffffffff83165f908152602081905260409020548181101561122b576040517fe450d38c00000000000000000000000000000000000000000000000000000000815273ffffffffffffffffffffffffffffffffffffffff851660048201526024810182905260448101839052606401610d74565b73ffffffffffffffffffffffffffffffffffffffff84165f9081526020819052604090209082900390555b73ffffffffffffffffffffffffffffffffffffffff821661127f576002805482900390556112aa565b73ffffffffffffffffffffffffffffffffffffffff82165f9081526020819052604090208054820190555b8173ffffffffffffffffffffffffffffffffffffffff168373ffffffffffffffffffffffffffffffffffffffff167fddf252ad1be2c89b69c2b068fc378daa952ba7f163c4a11628f55a4df523b3ef8360405161130991815260200190565b60405180910390a3505050565b5f5f60205f8451602086015f885af180611335576040513d5f823e3d81fd5b50505f513d9150811561134c578060011415611366565b73ffffffffffffffffffffffffffffffffffffffff84163b155b15610ef3576040517f5274afe700000000000000000000000000000000000000000000000000000000815273ffffffffffffffffffffffffffffffffffffffff85166004820152602401610d74565b73ffffffffffffffffffffffffffffffffffffffff8416611404576040517fe602df050000000000000000000000000000000000000000000000000000000081525f6004820152602401610d74565b73ffffffffffffffffffffffffffffffffffffffff8316611453576040517f94280d620000000000000000000000000000000000000000000000000000000081525f6004820152602401610d74565b73ffffffffffffffffffffffffffffffffffffffff8085165f9081526001602090815260408083209387168352929052208290558015610ef3578273ffffffffffffffffffffffffffffffffffffffff168473ffffffffffffffffffffffffffffffffffffffff167f8c5be1e5ebec7d5bd14f71427d1e84f3dd0314c0f7b2291e5b200ac8c7c3b925846040516114ec91815260200190565b60405180910390a350505050565b803573ffffffffffffffffffffffffffffffffffffffff8116811461151d575f5ffd5b919050565b5f5f60408385031215611533575f5ffd5b82359150611543602084016114fa565b90509250929050565b602081525f82518060208401528060208501604085015e5f6040828501015260407fffffffffffffffffffffffffffffffffffffffffffffffffffffffffffffffe0601f83011684010191505092915050565b5f5f604083850312156115b0575f5ffd5b6115b9836114fa565b946020939093013593505050565b5f5f5f606084860312156115d9575f5ffd5b6115e2846114fa565b92506115f0602085016114fa565b929592945050506040919091013590565b5f60208284031215611611575f5ffd5b611112826114fa565b5f5f5f6060848603121561162c575f5ffd5b611635846114fa565b92506020840135915061164a604085016114fa565b90509250925092565b5f5f60408385031215611664575f5ffd5b61166d836114fa565b9150611543602084016114fa565b7f4e487b71000000000000000000000000000000000000000000000000000000005f52601160045260245ffd5b80820281158282048414176105d1576105d161167b565b7f4e487b71000000000000000000000000000000000000000000000000000000005f52601260045260245ffd5b5f8261171f577f4e487b71000000000000000000000000000000000000000000000000000000005f52601260045260245ffd5b500490565b818103818111156105d1576105d161167b565b600181811c9082168061174b57607f821691505b602082108103611782577f4e487b71000000000000000000000000000000000000000000000000000000005f52602260045260245ffd5b50919050565b5f60208284031215611798575f5ffd5b5051919050565b808201808211156105d1576105d161167b56fea2646970667358221220049d73e7b88a453d9a3a019ab9e2112ac38a9fd2931c8d938ac142e14b499d9064736f6c634300081d00330000000000000000000000002c56932223cde0d363266f1308c48ff1bf9f9041000000000000000000000000da796117bf6905dd8db2ff1ab4397f6d2c4adda3"
        }
      ],
      "isFixedGasLimit": false
    },
    {
      "hash": "0x3014d3a4aaa9509fd68c40b20723f677f379a5a58efbc76d2edbdd96be731c09",
      "transactionType": "CALL",
      "contractName": "PiscineV1Exchange",
      "contractAddress": "0xc565eb7363769f8ffae0005285ccd854c631a0a0",
      "function": "addLiquidity(address,address,uint256,uint256)",
      "arguments": [
        "0x91c8C745fd156d8624677aa924Cdc1Ef8173C69C",
        "0xdA796117bF6905DD8DB2fF1ab4397f6d2c4ADda3",
        "40000000",
        "60000000"
      ],
      "transaction": {
        "from": "0xf39fd6e51aad88f6f4ce6ab8827279cfffb92266",
        "to": "0xc565eb7363769f8ffae0005285ccd854c631a0a0",
        "gas": "0x22a014",
        "value": "0x0",
        "input": "0xcf6c62ea00000000000000000000000091c8c745fd156d8624677aa924cdc1ef8173c69c000000000000000000000000da796117bf6905dd8db2ff1ab4397f6d2c4adda30000000000000000000000000000000000000000000000000000000002625a000000000000000000000000000000000000000000000000000000000003938700",
        "nonce": "0x3b8",
        "chainId": "0x1"
      },
      "additionalContracts": [
        {
          "transactionType": "CREATE2",
          "address": "0xb823aefa691a85c47f807ca9ac4ef621fb06c94c",
          "initCode": "0x60c060405234801561000f575f5ffd5b50604051611ac0380380611ac083398101604081905261002e916100c4565b6040518060400160405280601081526020016f2834b9b1b4b732902628102a37b5b2b760811b815250604051806040016040528060038152602001620504c560ec1b8152508160039081610082919061018d565b50600461008f828261018d565b5050506001600160a01b039182166080521660a052610247565b80516001600160a01b03811681146100bf575f5ffd5b919050565b5f5f604083850312156100d5575f5ffd5b6100de836100a9565b91506100ec602084016100a9565b90509250929050565b634e487b7160e01b5f52604160045260245ffd5b600181811c9082168061011d57607f821691505b60208210810361013b57634e487b7160e01b5f52602260045260245ffd5b50919050565b601f82111561018857805f5260205f20601f840160051c810160208510156101665750805b601f840160051c820191505b81811015610185575f8155600101610172565b50505b505050565b81516001600160401b038111156101a6576101a66100f5565b6101ba816101b48454610109565b84610141565b6020601f8211600181146101ec575f83156101d55750848201515b5f19600385901b1c1916600184901b178455610185565b5f84815260208120601f198516915b8281101561021b57878501518255602094850194600190920191016101fb565b508482101561023857868401515f19600387901b60f8161c191681555b50505050600190811b01905550565b60805160a0516117e86102d85f395f81816102320152818161035201528181610411015281816104af015281816106830152818161072a0152818161099a01528181610a8d0152610c8b01525f818161014f015281816102ec015281816103b80152818161046e0152818161061b015281816106b5015281816106f8015281816109680152610c3201526117e85ff3fe608060405234801561000f575f5ffd5b50600436106100f0575f3560e01c806370a0823111610093578063d21220a711610063578063d21220a71461022d578063dd62ed3e14610254578063e3412e3d14610299578063ea4454a4146102ac575f5ffd5b806370a08231146101ca57806395d89b41146101ff578063a9059cbb14610207578063cbc787981461021a575f5ffd5b80630dfe1681116100ce5780630dfe16811461014a57806318160ddd1461019657806323b872dd146101a8578063313ce567146101bb575f5ffd5b806305fe138b146100f457806306fdde0314610109578063095ea7b314610127575b5f5ffd5b610107610102366004611522565b6102cb565b005b61011161052e565b60405161011e919061154c565b60405180910390f35b61013a61013536600461159f565b6105be565b604051901515815260200161011e565b6101717f000000000000000000000000000000000000000000000000000000000000000081565b60405173ffffffffffffffffffffffffffffffffffffffff909116815260200161011e565b6002545b60405190815260200161011e565b61013a6101b63660046115c7565b6105d7565b6040516012815260200161011e565b61019a6101d8366004611601565b73ffffffffffffffffffffffffffffffffffffffff165f9081526020819052604090205490565b6101116105fa565b61013a61021536600461159f565b610609565b61010761022836600461161a565b610616565b6101717f000000000000000000000000000000000000000000000000000000000000000081565b61019a610262366004611653565b73ffffffffffffffffffffffffffffffffffffffff9182165f90815260016020908152604080832093909416825291909152205490565b6101076102a7366004611601565b610951565b61019a6102ba366004611601565b60056020525f908152604090205481565b5f6102d560025490565b73ffffffffffffffffffffffffffffffffffffffff7f0000000000000000000000000000000000000000000000000000000000000000165f908152600560205260409020546103259085906116a8565b61032f91906116ec565b90505f61033b60025490565b73ffffffffffffffffffffffffffffffffffffffff7f0000000000000000000000000000000000000000000000000000000000000000165f9081526005602052604090205461038b9086906116a8565b61039591906116ec565b90506103a18385610d29565b73ffffffffffffffffffffffffffffffffffffffff7f0000000000000000000000000000000000000000000000000000000000000000165f90815260056020526040812080548492906103f5908490611724565b909155505073ffffffffffffffffffffffffffffffffffffffff7f0000000000000000000000000000000000000000000000000000000000000000165f908152600560205260408120805483929061044e908490611724565b90915550610495905073ffffffffffffffffffffffffffffffffffffffff7f0000000000000000000000000000000000000000000000000000000000000000168484610d8c565b6104d673ffffffffffffffffffffffffffffffffffffffff7f0000000000000000000000000000000000000000000000000000000000000000168483610d8c565b80828473ffffffffffffffffffffffffffffffffffffffff167f1dc8bb69df2b8e91fbdcbfcf93d951b3f0000f085a95fe3f7946d6161439245d8760405161052091815260200190565b60405180910390a450505050565b60606003805461053d90611737565b80601f016020809104026020016040519081016040528092919081815260200182805461056990611737565b80156105b45780601f1061058b576101008083540402835291602001916105b4565b820191905f5260205f20905b81548152906001019060200180831161059757829003601f168201915b5050505050905090565b5f336105cb818585610e1e565b60019150505b92915050565b5f336105e4858285610e2b565b6105ef858585610ef9565b506001949350505050565b60606004805461053d90611737565b5f336105cb818585610ef9565b5f5f5f7f000000000000000000000000000000000000000000000000000000000000000073ffffffffffffffffffffffffffffffffffffffff168673ffffffffffffffffffffffffffffffffffffffff16146106e15773ffffffffffffffffffffffffffffffffffffffff7f000000000000000000000000000000000000000000000000000000000000000081165f90815260056020526040808220547f00000000000000000000000000000000000000000000000000000000000000009384168352912054610752565b73ffffffffffffffffffffffffffffffffffffffff7f000000000000000000000000000000000000000000000000000000000000000081165f90815260056020526040808220547f000000000000000000000000000000000000000000000000000000000000000093841683529120545b6040517f70a0823100000000000000000000000000000000000000000000000000000000815230600482015292955090935091505f90839073ffffffffffffffffffffffffffffffffffffffff8916906370a0823190602401602060405180830381865afa1580156107c6573d5f5f3e3d5ffd5b505050506040513d601f19601f820116820180604052508101906107ea9190611788565b6107f49190611724565b90505f6103e8610806836103e56116a8565b61081091906116ec565b90505f61081d828661179f565b61082783866116a8565b61083191906116ec565b90508781101561086d576040517f42301c2300000000000000000000000000000000000000000000000000000000815260040160405180910390fd5b73ffffffffffffffffffffffffffffffffffffffff89165f90815260056020526040812080548592906108a190849061179f565b909155505073ffffffffffffffffffffffffffffffffffffffff86165f90815260056020526040812080548392906108da908490611724565b90915550610901905073ffffffffffffffffffffffffffffffffffffffff87168883610d8c565b80838873ffffffffffffffffffffffffffffffffffffffff167f18704ae982dcd24a1beeeed3ecf045ab0520d7b7519b97adf3e4f40bf7efe33960405160405180910390a4505050505050505050565b73ffffffffffffffffffffffffffffffffffffffff7f000000000000000000000000000000000000000000000000000000000000000081165f81815260056020526040808220547f000000000000000000000000000000000000000000000000000000000000000090941682528082205490517f70a08231000000000000000000000000000000000000000000000000000000008152306004820152909284916370a0823190602401602060405180830381865afa158015610a15573d5f5f3e3d5ffd5b505050506040513d601f19601f82011682018060405250810190610a399190611788565b610a439190611724565b6040517f70a082310000000000000000000000000000000000000000000000000000000081523060048201529091505f90839073ffffffffffffffffffffffffffffffffffffffff7f000000000000000000000000000000000000000000000000000000000000000016906370a0823190602401602060405180830381865afa158015610ad2573d5f5f3e3d5ffd5b505050506040513d601f19601f82011682018060405250810190610af69190611788565b610b009190611724565b90505f845f03610b2357610b1c610b1783856116a8565b610fa2565b9050610c11565b5f84610b3787670de0b6b3a76400006116a8565b610b4191906116ec565b90505f83610b5786670de0b6b3a76400006116a8565b610b6191906116ec565b90505f610b6f6064846116ec565b9050610b7b818461179f565b821180610b905750610b8d8184611724565b82105b15610bc7576040517f648564d300000000000000000000000000000000000000000000000000000000815260040160405180910390fd5b610c0b88610bd460025490565b610bde90896116a8565b610be891906116ec565b88610bf260025490565b610bfc90896116a8565b610c0691906116ec565b611107565b93505050505b610c1b8682611119565b73ffffffffffffffffffffffffffffffffffffffff7f0000000000000000000000000000000000000000000000000000000000000000165f9081526005602052604081208054859290610c6f90849061179f565b909155505073ffffffffffffffffffffffffffffffffffffffff7f0000000000000000000000000000000000000000000000000000000000000000165f9081526005602052604081208054849290610cc890849061179f565b9250508190555081838773ffffffffffffffffffffffffffffffffffffffff167f64b83944e79c3ce8d4c297411de637c3e102d064677aac0c163976ebdcd6f50e84604051610d1991815260200190565b60405180910390a4505050505050565b73ffffffffffffffffffffffffffffffffffffffff8216610d7d576040517f96c6fd1e0000000000000000000000000000000000000000000000000000000081525f60048201526024015b60405180910390fd5b610d88825f8361116f565b5050565b6040805173ffffffffffffffffffffffffffffffffffffffff8416602482015260448082018490528251808303909101815260649091019091526020810180517bffffffffffffffffffffffffffffffffffffffffffffffffffffffff167fa9059cbb00000000000000000000000000000000000000000000000000000000179052610e19908490611316565b505050565b610e1983838360016113b5565b73ffffffffffffffffffffffffffffffffffffffff8381165f908152600160209081526040808320938616835292905220547fffffffffffffffffffffffffffffffffffffffffffffffffffffffffffffffff811015610ef35781811015610ee5576040517ffb8f41b200000000000000000000000000000000000000000000000000000000815273ffffffffffffffffffffffffffffffffffffffff841660048201526024810182905260448101839052606401610d74565b610ef384848484035f6113b5565b50505050565b73ffffffffffffffffffffffffffffffffffffffff8316610f48576040517f96c6fd1e0000000000000000000000000000000000000000000000000000000081525f6004820152602401610d74565b73ffffffffffffffffffffffffffffffffffffffff8216610f97576040517fec442f050000000000000000000000000000000000000000000000000000000081525f6004820152602401610d74565b610e1983838361116f565b5f60018211610faf575090565b8160017001000000000000000000000000000000008210610fd55760809190911c9060401b5b680100000000000000008210610ff05760409190911c9060201b5b64010000000082106110075760209190911c9060101b5b62010000821061101c5760109190911c9060081b5b61010082106110305760089190911c9060041b5b601082106110435760049190911c9060021b5b6004821061104f5760011b5b600302600190811c90818581611067576110676116bf565b048201901c9050600181858161107f5761107f6116bf565b048201901c90506001818581611097576110976116bf565b048201901c905060018185816110af576110af6116bf565b048201901c905060018185816110c7576110c76116bf565b048201901c905060018185816110df576110df6116bf565b048201901c90506110fe8185816110f8576110f86116bf565b04821190565b90039392505050565b5f8282188284100282185b9392505050565b73ffffffffffffffffffffffffffffffffffffffff8216611168576040517fec442f050000000000000000000000000000000000000000000000000000000081525f6004820152602401610d74565b610d885f83835b73ffffffffffffffffffffffffffffffffffffffff83166111a6578060025f82825461119b919061179f565b909155506112569050565b73ffffffffffffffffffffffffffffffffffffffff83165f908152602081905260409020548181101561122b576040517fe450d38c00000000000000000000000000000000000000000000000000000000815273ffffffffffffffffffffffffffffffffffffffff851660048201526024810182905260448101839052606401610d74565b73ffffffffffffffffffffffffffffffffffffffff84165f9081526020819052604090209082900390555b73ffffffffffffffffffffffffffffffffffffffff821661127f576002805482900390556112aa565b73ffffffffffffffffffffffffffffffffffffffff82165f9081526020819052604090208054820190555b8173ffffffffffffffffffffffffffffffffffffffff168373ffffffffffffffffffffffffffffffffffffffff167fddf252ad1be2c89b69c2b068fc378daa952ba7f163c4a11628f55a4df523b3ef8360405161130991815260200190565b60405180910390a3505050565b5f5f60205f8451602086015f885af180611335576040513d5f823e3d81fd5b50505f513d9150811561134c578060011415611366565b73ffffffffffffffffffffffffffffffffffffffff84163b155b15610ef3576040517f5274afe700000000000000000000000000000000000000000000000000000000815273ffffffffffffffffffffffffffffffffffffffff85166004820152602401610d74565b73ffffffffffffffffffffffffffffffffffffffff8416611404576040517fe602df050000000000000000000000000000000000000000000000000000000081525f6004820152602401610d74565b73ffffffffffffffffffffffffffffffffffffffff8316611453576040517f94280d620000000000000000000000000000000000000000000000000000000081525f6004820152602401610d74565b73ffffffffffffffffffffffffffffffffffffffff8085165f9081526001602090815260408083209387168352929052208290558015610ef3578273ffffffffffffffffffffffffffffffffffffffff168473ffffffffffffffffffffffffffffffffffffffff167f8c5be1e5ebec7d5bd14f71427d1e84f3dd0314c0f7b2291e5b200ac8c7c3b925846040516114ec91815260200190565b60405180910390a350505050565b803573ffffffffffffffffffffffffffffffffffffffff8116811461151d575f5ffd5b919050565b5f5f60408385031215611533575f5ffd5b82359150611543602084016114fa565b90509250929050565b602081525f82518060208401528060208501604085015e5f6040828501015260407fffffffffffffffffffffffffffffffffffffffffffffffffffffffffffffffe0601f83011684010191505092915050565b5f5f604083850312156115b0575f5ffd5b6115b9836114fa565b946020939093013593505050565b5f5f5f606084860312156115d9575f5ffd5b6115e2846114fa565b92506115f0602085016114fa565b929592945050506040919091013590565b5f60208284031215611611575f5ffd5b611112826114fa565b5f5f5f6060848603121561162c575f5ffd5b611635846114fa565b92506020840135915061164a604085016114fa565b90509250925092565b5f5f60408385031215611664575f5ffd5b61166d836114fa565b9150611543602084016114fa565b7f4e487b71000000000000000000000000000000000000000000000000000000005f52601160045260245ffd5b80820281158282048414176105d1576105d161167b565b7f4e487b71000000000000000000000000000000000000000000000000000000005f52601260045260245ffd5b5f8261171f577f4e487b71000000000000000000000000000000000000000000000000000000005f52601260045260245ffd5b500490565b818103818111156105d1576105d161167b565b600181811c9082168061174b57607f821691505b602082108103611782577f4e487b71000000000000000000000000000000000000000000000000000000005f52602260045260245ffd5b50919050565b5f60208284031215611798575f5ffd5b5051919050565b808201808211156105d1576105d161167b56fea2646970667358221220049d73e7b88a453d9a3a019ab9e2112ac38a9fd2931c8d938ac142e14b499d9064736f6c634300081d003300000000000000000000000091c8c745fd156d8624677aa924cdc1ef8173c69c000000000000000000000000da796117bf6905dd8db2ff1ab4397f6d2c4adda3"
        }
      ],
      "isFixedGasLimit": false
    },
    {
      "hash": "0x20fcd8273965c1238ff006da8f0cf74379ea51d0af3c0299fce2c4ad7494f7a1",
      "transactionType": "CALL",
      "contractName": "PiscineV1Exchange",
      "contractAddress": "0xc565eb7363769f8ffae0005285ccd854c631a0a0",
      "function": "swapTokens(address,address,uint256,uint256)",
      "arguments": [
        "0x2C56932223cdE0D363266f1308c48Ff1BF9F9041",
        "0x91c8C745fd156d8624677aa924Cdc1Ef8173C69C",
        "2000000",
        "1"
      ],
      "transaction": {
        "from": "0xf39fd6e51aad88f6f4ce6ab8827279cfffb92266",
        "to": "0xc565eb7363769f8ffae0005285ccd854c631a0a0",
        "gas": "0x1adce",
        "value": "0x0",
        "input": "0x8e18cdfc0000000000000000000000002c56932223cde0d363266f1308c48ff1bf9f904100000000000000000000000091c8c745fd156d8624677aa924cdc1ef8173c69c00000000000000000000000000000000000000000000000000000000001e84800000000000000000000000000000000000000000000000000000000000000001",
        "nonce": "0x3b9",
        "chainId": "0x1"
      },
      "additionalContracts": [],
      "isFixedGasLimit": false
    },
    {
      "hash": "0x23a84e55874693bc9b7fa9d4cdbfa88adacdce7b0d4ac21fdcfdbeb804e2d1f2",
      "transactionType": "CALL",
      "contractName": "PiscineV1Exchange",
      "contractAddress": "0xc565eb7363769f8ffae0005285ccd854c631a0a0",
      "function": "swapTokens(address,address,uint256,uint256)",
      "arguments": [
        "0x2C56932223cdE0D363266f1308c48Ff1BF9F9041",
        "0xdA796117bF6905DD8DB2fF1ab4397f6d2c4ADda3",
        "5000000",
        "1"
      ],
      "transaction": {
        "from": "0xf39fd6e51aad88f6f4ce6ab8827279cfffb92266",
        "to": "0xc565eb7363769f8ffae0005285ccd854c631a0a0",
        "gas": "0x228c8",
        "value": "0x0",
        "input": "0x8e18cdfc0000000000000000000000002c56932223cde0d363266f1308c48ff1bf9f9041000000000000000000000000da796117bf6905dd8db2ff1ab4397f6d2c4adda300000000000000000000000000000000000000000000000000000000004c4b400000000000000000000000000000000000000000000000000000000000000001",
        "nonce": "0x3ba",
        "chainId": "0x1"
      },
      "additionalContracts": [],
      "isFixedGasLimit": false
    },
    {
      "hash": "0x3ec7798827d6306e41053f36f32ede38cc789015efa7e6e128fc8bf27dced482",
      "transactionType": "CALL",
      "contractName": "PiscineV1Exchange",
      "contractAddress": "0xc565eb7363769f8ffae0005285ccd854c631a0a0",
      "function": "swapTokens(address,address,uint256,uint256)",
      "arguments": [
        "0x91c8C745fd156d8624677aa924Cdc1Ef8173C69C",
        "0xdA796117bF6905DD8DB2fF1ab4397f6d2c4ADda3",
        "10000000",
        "1"
      ],
      "transaction": {
        "from": "0xf39fd6e51aad88f6f4ce6ab8827279cfffb92266",
        "to": "0xc565eb7363769f8ffae0005285ccd854c631a0a0",
        "gas": "0x1adce",
        "value": "0x0",
        "input": "0x8e18cdfc00000000000000000000000091c8c745fd156d8624677aa924cdc1ef8173c69c000000000000000000000000da796117bf6905dd8db2ff1ab4397f6d2c4adda300000000000000000000000000000000000000000000000000000000009896800000000000000000000000000000000000000000000000000000000000000001",
        "nonce": "0x3bb",
        "chainId": "0x1"
      },
      "additionalContracts": [],
      "isFixedGasLimit": false
    },
    {
      "hash": "0x8586a76800fb21dcbf6ac15616e3eb7f84e72649926767c2da840425cf3d303c",
      "transactionType": "CALL",
      "contractName": "ERC20Mock",
      "contractAddress": "0x2c56932223cde0d363266f1308c48ff1bf9f9041",
      "function": "mint(address,uint256)",
      "arguments": [
        "0x70997970C51812dc3A010C7d01b50e0d17dc79C8",
        "100000000"
      ],
      "transaction": {
        "from": "0x70997970c51812dc3a010c7d01b50e0d17dc79c8",
        "to": "0x2c56932223cde0d363266f1308c48ff1bf9f9041",
        "gas": "0x1249a",
        "value": "0x0",
        "input": "0x40c10f1900000000000000000000000070997970c51812dc3a010c7d01b50e0d17dc79c80000000000000000000000000000000000000000000000000000000005f5e100",
        "nonce": "0xa8",
        "chainId": "0x1"
      },
      "additionalContracts": [],
      "isFixedGasLimit": false
    },
    {
      "hash": "0x06354321292184a6840d2e9ffdd22659e28ef6e939ce89ac789461a909b20c8f",
      "transactionType": "CALL",
      "contractName": "ERC20Mock",
      "contractAddress": "0x91c8c745fd156d8624677aa924cdc1ef8173c69c",
      "function": "mint(address,uint256)",
      "arguments": [
        "0x70997970C51812dc3A010C7d01b50e0d17dc79C8",
        "100000000"
      ],
      "transaction": {
        "from": "0x70997970c51812dc3a010c7d01b50e0d17dc79c8",
        "to": "0x91c8c745fd156d8624677aa924cdc1ef8173c69c",
        "gas": "0x1249a",
        "value": "0x0",
        "input": "0x40c10f1900000000000000000000000070997970c51812dc3a010c7d01b50e0d17dc79c80000000000000000000000000000000000000000000000000000000005f5e100",
        "nonce": "0xa9",
        "chainId": "0x1"
      },
      "additionalContracts": [],
      "isFixedGasLimit": false
    },
    {
      "hash": "0xe804a76ebf96a673c647ecbb466a724f0ee2d477e1068d94c016eca53c07443f",
      "transactionType": "CALL",
      "contractName": "ERC20Mock",
      "contractAddress": "0xda796117bf6905dd8db2ff1ab4397f6d2c4adda3",
      "function": "mint(address,uint256)",
      "arguments": [
        "0x70997970C51812dc3A010C7d01b50e0d17dc79C8",
        "100000000"
      ],
      "transaction": {
        "from": "0x70997970c51812dc3a010c7d01b50e0d17dc79c8",
        "to": "0xda796117bf6905dd8db2ff1ab4397f6d2c4adda3",
        "gas": "0x1249a",
        "value": "0x0",
        "input": "0x40c10f1900000000000000000000000070997970c51812dc3a010c7d01b50e0d17dc79c80000000000000000000000000000000000000000000000000000000005f5e100",
        "nonce": "0xaa",
        "chainId": "0x1"
      },
      "additionalContracts": [],
      "isFixedGasLimit": false
    },
    {
      "hash": "0x11c74d7268cf1f00becde9f3e3cf97738dea4a9afe5eda39c1b39c89e4fd47c5",
      "transactionType": "CALL",
      "contractName": "ERC20Mock",
      "contractAddress": "0x2c56932223cde0d363266f1308c48ff1bf9f9041",
      "function": "approve(address,uint256)",
      "arguments": [
        "0xc565EB7363769f8ffAe0005285ccD854c631A0a0",
        "100000000"
      ],
      "transaction": {
        "from": "0x70997970c51812dc3a010c7d01b50e0d17dc79c8",
        "to": "0x2c56932223cde0d363266f1308c48ff1bf9f9041",
        "gas": "0xf9a4",
        "value": "0x0",
        "input": "0x095ea7b3000000000000000000000000c565eb7363769f8ffae0005285ccd854c631a0a00000000000000000000000000000000000000000000000000000000005f5e100",
        "nonce": "0xab",
        "chainId": "0x1"
      },
      "additionalContracts": [],
      "isFixedGasLimit": false
    },
    {
      "hash": "0x29b987d47f587e18b8e4fcef94f0f8d26d41a3c16fb3e93301670bc3002406ab",
      "transactionType": "CALL",
      "contractName": "ERC20Mock",
      "contractAddress": "0x91c8c745fd156d8624677aa924cdc1ef8173c69c",
      "function": "approve(address,uint256)",
      "arguments": [
        "0xc565EB7363769f8ffAe0005285ccD854c631A0a0",
        "100000000"
      ],
      "transaction": {
        "from": "0x70997970c51812dc3a010c7d01b50e0d17dc79c8",
        "to": "0x91c8c745fd156d8624677aa924cdc1ef8173c69c",
        "gas": "0xf9a4",
        "value": "0x0",
        "input": "0x095ea7b3000000000000000000000000c565eb7363769f8ffae0005285ccd854c631a0a00000000000000000000000000000000000000000000000000000000005f5e100",
        "nonce": "0xac",
        "chainId": "0x1"
      },
      "additionalContracts": [],
      "isFixedGasLimit": false
    },
    {
      "hash": "0x29718a84fd4bea88f631e7a7058e0043ac49453e021f206ebb3c7f1c31f27189",
      "transactionType": "CALL",
      "contractName": "ERC20Mock",
      "contractAddress": "0xda796117bf6905dd8db2ff1ab4397f6d2c4adda3",
      "function": "approve(address,uint256)",
      "arguments": [
        "0xc565EB7363769f8ffAe0005285ccD854c631A0a0",
        "100000000"
      ],
      "transaction": {
        "from": "0x70997970c51812dc3a010c7d01b50e0d17dc79c8",
        "to": "0xda796117bf6905dd8db2ff1ab4397f6d2c4adda3",
        "gas": "0xf9a4",
        "value": "0x0",
        "input": "0x095ea7b3000000000000000000000000c565eb7363769f8ffae0005285ccd854c631a0a00000000000000000000000000000000000000000000000000000000005f5e100",
        "nonce": "0xad",
        "chainId": "0x1"
      },
      "additionalContracts": [],
      "isFixedGasLimit": false
    },
    {
      "hash": "0xbca71196b36940325bf10dc47e843142a72f2835e8070feb41d133ef180af77d",
      "transactionType": "CALL",
      "contractName": "PiscineV1Exchange",
      "contractAddress": "0xc565eb7363769f8ffae0005285ccd854c631a0a0",
      "function": "swapTokens(address,address,uint256,uint256)",
      "arguments": [
        "0x2C56932223cdE0D363266f1308c48Ff1BF9F9041",
        "0x91c8C745fd156d8624677aa924Cdc1Ef8173C69C",
        "2000000",
        "1"
      ],
      "transaction": {
        "from": "0x70997970c51812dc3a010c7d01b50e0d17dc79c8",
        "to": "0xc565eb7363769f8ffae0005285ccd854c631a0a0",
        "gas": "0x1adce",
        "value": "0x0",
        "input": "0x8e18cdfc0000000000000000000000002c56932223cde0d363266f1308c48ff1bf9f904100000000000000000000000091c8c745fd156d8624677aa924cdc1ef8173c69c00000000000000000000000000000000000000000000000000000000001e84800000000000000000000000000000000000000000000000000000000000000001",
        "nonce": "0xae",
        "chainId": "0x1"
      },
      "additionalContracts": [],
      "isFixedGasLimit": false
    },
    {
      "hash": "0x1d4bb99a909d15774feb9171aa5243bd365f9e559a5ddb429cdd9e4c34ff15f5",
      "transactionType": "CALL",
      "contractName": "PiscineV1Exchange",
      "contractAddress": "0xc565eb7363769f8ffae0005285ccd854c631a0a0",
      "function": "swapTokens(address,address,uint256,uint256)",
      "arguments": [
        "0x2C56932223cdE0D363266f1308c48Ff1BF9F9041",
        "0xdA796117bF6905DD8DB2fF1ab4397f6d2c4ADda3",
        "5000000",
        "1"
      ],
      "transaction": {
        "from": "0x70997970c51812dc3a010c7d01b50e0d17dc79c8",
        "to": "0xc565eb7363769f8ffae0005285ccd854c631a0a0",
        "gas": "0x1adce",
        "value": "0x0",
        "input": "0x8e18cdfc0000000000000000000000002c56932223cde0d363266f1308c48ff1bf9f9041000000000000000000000000da796117bf6905dd8db2ff1ab4397f6d2c4adda300000000000000000000000000000000000000000000000000000000004c4b400000000000000000000000000000000000000000000000000000000000000001",
        "nonce": "0xaf",
        "chainId": "0x1"
      },
      "additionalContracts": [],
      "isFixedGasLimit": false
    },
    {
      "hash": "0x0cd4be492409fe611f2fb21859e1a936c7efa6b481bdf72d70a6868db95f518f",
      "transactionType": "CALL",
      "contractName": "PiscineV1Exchange",
      "contractAddress": "0xc565eb7363769f8ffae0005285ccd854c631a0a0",
      "function": "swapTokens(address,address,uint256,uint256)",
      "arguments": [
        "0x91c8C745fd156d8624677aa924Cdc1Ef8173C69C",
        "0xdA796117bF6905DD8DB2fF1ab4397f6d2c4ADda3",
        "10000000",
        "1"
      ],
      "transaction": {
        "from": "0x70997970c51812dc3a010c7d01b50e0d17dc79c8",
        "to": "0xc565eb7363769f8ffae0005285ccd854c631a0a0",
        "gas": "0x1adce",
        "value": "0x0",
        "input": "0x8e18cdfc00000000000000000000000091c8c745fd156d8624677aa924cdc1ef8173c69c000000000000000000000000da796117bf6905dd8db2ff1ab4397f6d2c4adda300000000000000000000000000000000000000000000000000000000009896800000000000000000000000000000000000000000000000000000000000000001",
        "nonce": "0xb0",
        "chainId": "0x1"
      },
      "additionalContracts": [],
      "isFixedGasLimit": false
    }
  ],
  "receipts": [
    {
      "status": "0x1",
      "cumulativeGasUsed": "0x2ce50f",
      "logs": [
        {
          "address": "0xc565eb7363769f8ffae0005285ccd854c631a0a0",
          "topics": [
            "0x8be0079c531659141344cd1fd0a4f28419497f9722a3daafe3b4186f6b6457e0",
            "0x0000000000000000000000000000000000000000000000000000000000000000",
            "0x000000000000000000000000f39fd6e51aad88f6f4ce6ab8827279cfffb92266"
          ],
          "data": "0x",
          "blockHash": "0xaf73880b24e1e4e82f9d52c3b2efbf703017eaabcb267d326f63efa705b9cc45",
          "blockNumber": "0x152a71c",
          "blockTimestamp": "0x67ef84b8",
          "transactionHash": "0xf7bfc66995e5b99edbccd74020214e8f726ca9006734ac2dd82b8c87ec56e9d7",
          "transactionIndex": "0x0",
          "logIndex": "0x0",
          "removed": false
        }
      ],
      "logsBloom": "0x00000000000000000000000000000000800000000000000000800000000000000000000000000000000000000000000000000000000000000000000000000000000000000000000000000000000000000001000000000000000000002000000000000000020000000000000100000800000000000000000000000000000000400000000000000000000000000000000000000000000000000000000000000000000000000000000000000000000000000000200000000000000000000000000000000000000000200000000000000000000000002000000000000000000020000000000000000000000000000000000000000000000000000000000000000000",
      "type": "0x2",
      "transactionHash": "0xf7bfc66995e5b99edbccd74020214e8f726ca9006734ac2dd82b8c87ec56e9d7",
      "transactionIndex": "0x0",
      "blockHash": "0xaf73880b24e1e4e82f9d52c3b2efbf703017eaabcb267d326f63efa705b9cc45",
      "blockNumber": "0x152a71c",
      "gasUsed": "0x2ce50f",
      "effectiveGasPrice": "0x1ba0ad6e",
      "blobGasPrice": "0x1",
      "from": "0xf39fd6e51aad88f6f4ce6ab8827279cfffb92266",
      "to": null,
      "contractAddress": "0xc565eb7363769f8ffae0005285ccd854c631a0a0"
    },
    {
      "status": "0x1",
      "cumulativeGasUsed": "0xa1278",
      "logs": [],
      "logsBloom": "0x00000000000000000000000000000000000000000000000000000000000000000000000000000000000000000000000000000000000000000000000000000000000000000000000000000000000000000000000000000000000000000000000000000000000000000000000000000000000000000000000000000000000000000000000000000000000000000000000000000000000000000000000000000000000000000000000000000000000000000000000000000000000000000000000000000000000000000000000000000000000000000000000000000000000000000000000000000000000000000000000000000000000000000000000000000000",
      "type": "0x2",
      "transactionHash": "0x42f0f8a5da10ebc412a3c5ebfc561e6587dfbc2908175297a8b99a419e6b025d",
      "transactionIndex": "0x0",
      "blockHash": "0x2a671fe95767ed2a761af4acb86c91d18518abba00460a03a04bb64d2c47e2f9",
      "blockNumber": "0x152a71d",
      "gasUsed": "0xa1278",
      "effectiveGasPrice": "0x18d0af34",
      "blobGasPrice": "0x1",
      "from": "0xf39fd6e51aad88f6f4ce6ab8827279cfffb92266",
      "to": null,
      "contractAddress": "0x2c56932223cde0d363266f1308c48ff1bf9f9041"
    },
    {
      "status": "0x1",
      "cumulativeGasUsed": "0xa1278",
      "logs": [],
      "logsBloom": "0x00000000000000000000000000000000000000000000000000000000000000000000000000000000000000000000000000000000000000000000000000000000000000000000000000000000000000000000000000000000000000000000000000000000000000000000000000000000000000000000000000000000000000000000000000000000000000000000000000000000000000000000000000000000000000000000000000000000000000000000000000000000000000000000000000000000000000000000000000000000000000000000000000000000000000000000000000000000000000000000000000000000000000000000000000000000",
      "type": "0x2",
      "transactionHash": "0x3a8230aaf43ac106aea2bf14b7cc956dcd6eae7f97c40f7faea899f44d512d87",
      "transactionIndex": "0x0",
      "blockHash": "0xbc2ea6f90c518f0bdab71ce8019a483e2f93efe224520605c408dce35ab31935",
      "blockNumber": "0x152a71e",
      "gasUsed": "0xa1278",
      "effectiveGasPrice": "0x15ea01a9",
      "blobGasPrice": "0x1",
      "from": "0xf39fd6e51aad88f6f4ce6ab8827279cfffb92266",
      "to": null,
      "contractAddress": "0x91c8c745fd156d8624677aa924cdc1ef8173c69c"
    },
    {
      "status": "0x1",
      "cumulativeGasUsed": "0xa1278",
      "logs": [],
      "logsBloom": "0x00000000000000000000000000000000000000000000000000000000000000000000000000000000000000000000000000000000000000000000000000000000000000000000000000000000000000000000000000000000000000000000000000000000000000000000000000000000000000000000000000000000000000000000000000000000000000000000000000000000000000000000000000000000000000000000000000000000000000000000000000000000000000000000000000000000000000000000000000000000000000000000000000000000000000000000000000000000000000000000000000000000000000000000000000000000",
      "type": "0x2",
      "transactionHash": "0xc4d50404149fd3a85e6bb0daa15f00d5201011f0526d46ad999dba34d11179b2",
      "transactionIndex": "0x0",
      "blockHash": "0x3b4f7224ea3eca0d5667961c83dc608a283e6e77d8e964cbf896477af96339ca",
      "blockNumber": "0x152a71f",
      "gasUsed": "0xa1278",
      "effectiveGasPrice": "0x135cc093",
      "blobGasPrice": "0x1",
      "from": "0xf39fd6e51aad88f6f4ce6ab8827279cfffb92266",
      "to": null,
      "contractAddress": "0xda796117bf6905dd8db2ff1ab4397f6d2c4adda3"
    },
    {
      "status": "0x1",
      "cumulativeGasUsed": "0x10ade",
      "logs": [
        {
          "address": "0x2c56932223cde0d363266f1308c48ff1bf9f9041",
          "topics": [
            "0xddf252ad1be2c89b69c2b068fc378daa952ba7f163c4a11628f55a4df523b3ef",
            "0x0000000000000000000000000000000000000000000000000000000000000000",
            "0x000000000000000000000000f39fd6e51aad88f6f4ce6ab8827279cfffb92266"
          ],
          "data": "0x0000000000000000000000000000000000000000000000000000000005f5e100",
          "blockHash": "0x5ab10e890267ebde8eac163daa1e00dba93e875a00c71aa016f49d6b06e2c170",
          "blockNumber": "0x152a720",
          "blockTimestamp": "0x67ef84b9",
          "transactionHash": "0xdaa78683269cd1deeee7cb43e0d9771c984db04e5fb27ff16e5f1bd375e2553c",
          "transactionIndex": "0x0",
          "logIndex": "0x0",
          "removed": false
        }
      ],
      "logsBloom": "0x00000000000000000000000000000000000000000000000000000000000000000000000000000000000000000000000000000200000000000000000000000000000000000000000000000008000000000000000000000000000000002000000000000000020000000000000100000800000000000000000000000010000000000000000000040000000000000000000000000000000000000000000000000000000000000000000000000000000000000000000000000000000000000000000000000002000000200000000000000000000000002000000000000000000020000000000000000000000000000000000000000000000000000000000000000000",
      "type": "0x2",
      "transactionHash": "0xdaa78683269cd1deeee7cb43e0d9771c984db04e5fb27ff16e5f1bd375e2553c",
      "transactionIndex": "0x0",
      "blockHash": "0x5ab10e890267ebde8eac163daa1e00dba93e875a00c71aa016f49d6b06e2c170",
      "blockNumber": "0x152a720",
      "gasUsed": "0x10ade",
      "effectiveGasPrice": "0x111e2789",
      "blobGasPrice": "0x1",
      "from": "0xf39fd6e51aad88f6f4ce6ab8827279cfffb92266",
      "to": "0x2c56932223cde0d363266f1308c48ff1bf9f9041",
      "contractAddress": null
    },
    {
      "status": "0x1",
      "cumulativeGasUsed": "0x10ade",
      "logs": [
        {
          "address": "0x91c8c745fd156d8624677aa924cdc1ef8173c69c",
          "topics": [
            "0xddf252ad1be2c89b69c2b068fc378daa952ba7f163c4a11628f55a4df523b3ef",
            "0x0000000000000000000000000000000000000000000000000000000000000000",
            "0x000000000000000000000000f39fd6e51aad88f6f4ce6ab8827279cfffb92266"
          ],
          "data": "0x0000000000000000000000000000000000000000000000000000000005f5e100",
          "blockHash": "0xe70a7fa42b34b670473b837e4bc8c588839a6f1b3663a233c9740cd4abf07994",
          "blockNumber": "0x152a721",
          "blockTimestamp": "0x67ef84b9",
          "transactionHash": "0x398d84cbca557711fe34831085ab741dae72d5e6122a187fa5016dee65a1ac00",
          "transactionIndex": "0x0",
          "logIndex": "0x0",
          "removed": false
        }
      ],
      "logsBloom": "0x00000000000000000000000000000000000000000000000000000000000000000000000000000000000000008000000000000000000000000000000000000000000000000000000000000008000000000000000000000000000000000000000000000000020000000000000100000800000000000020000000000010000000000000000000000000000000000000000000000000000000000000000000000000000000000000000000000002000000000000000000000000000000000000000000000002000000200000000000000000000000002000000000000000000020000000000000000000000000000000000000000000000000000000000000000000",
      "type": "0x2",
      "transactionHash": "0x398d84cbca557711fe34831085ab741dae72d5e6122a187fa5016dee65a1ac00",
      "transactionIndex": "0x0",
      "blockHash": "0xe70a7fa42b34b670473b837e4bc8c588839a6f1b3663a233c9740cd4abf07994",
      "blockNumber": "0x152a721",
      "gasUsed": "0x10ade",
      "effectiveGasPrice": "0xf137568",
      "blobGasPrice": "0x1",
      "from": "0xf39fd6e51aad88f6f4ce6ab8827279cfffb92266",
      "to": "0x91c8c745fd156d8624677aa924cdc1ef8173c69c",
      "contractAddress": null
    },
    {
      "status": "0x1",
      "cumulativeGasUsed": "0x10ade",
      "logs": [
        {
          "address": "0xda796117bf6905dd8db2ff1ab4397f6d2c4adda3",
          "topics": [
            "0xddf252ad1be2c89b69c2b068fc378daa952ba7f163c4a11628f55a4df523b3ef",
            "0x0000000000000000000000000000000000000000000000000000000000000000",
            "0x000000000000000000000000f39fd6e51aad88f6f4ce6ab8827279cfffb92266"
          ],
          "data": "0x0000000000000000000000000000000000000000000000000000000005f5e100",
          "blockHash": "0x71ab381382c182eeaa4309f5127158ee1eb945fa777c76bce9a74da71211cabc",
          "blockNumber": "0x152a722",
          "blockTimestamp": "0x67ef84b9",
          "transactionHash": "0x2fbfa252b981ff873d97c34e07aace075bed9c4788f4988dcec899dffa4fb13c",
          "transactionIndex": "0x0",
          "logIndex": "0x0",
          "removed": false
        }
      ],
      "logsBloom": "0x00000000000000000000000000000000000000000000000000000000000000000000000000000000000000000000000000000000001000000000000000000000000000000000000000000008000000000000000000000000000000800000000000000000020000000000000100000800000000000000000000000010000000000000000000000000000000000000000000000000000000000000000000000000000000000000000000000000000000000000002000000000000000000000000000000002000000200000000000000000000000002000000000000000000020000000000000000000000000000000000000000000000000000000000000000000",
      "type": "0x2",
      "transactionHash": "0x2fbfa252b981ff873d97c34e07aace075bed9c4788f4988dcec899dffa4fb13c",
      "transactionIndex": "0x0",
      "blockHash": "0x71ab381382c182eeaa4309f5127158ee1eb945fa777c76bce9a74da71211cabc",
      "blockNumber": "0x152a722",
      "gasUsed": "0x10ade",
      "effectiveGasPrice": "0xd49d9ef",
      "blobGasPrice": "0x1",
      "from": "0xf39fd6e51aad88f6f4ce6ab8827279cfffb92266",
      "to": "0xda796117bf6905dd8db2ff1ab4397f6d2c4adda3",
      "contractAddress": null
    },
    {
      "status": "0x1",
      "cumulativeGasUsed": "0xb4bd",
      "logs": [
        {
          "address": "0x2c56932223cde0d363266f1308c48ff1bf9f9041",
          "topics": [
            "0x8c5be1e5ebec7d5bd14f71427d1e84f3dd0314c0f7b2291e5b200ac8c7c3b925",
            "0x000000000000000000000000f39fd6e51aad88f6f4ce6ab8827279cfffb92266",
            "0x000000000000000000000000c565eb7363769f8ffae0005285ccd854c631a0a0"
          ],
          "data": "0x0000000000000000000000000000000000000000000000000000000005f5e100",
          "blockHash": "0x7cb479845397e77c69ccbfbdc96a9c76ad712ced09e4a33627df9a9eae75c962",
          "blockNumber": "0x152a723",
          "blockTimestamp": "0x67ef84b9",
          "transactionHash": "0xa5fc1bbe5dff5747b8363c84b628736c0a47784e70ed5e428595439811ca0f65",
          "transactionIndex": "0x0",
          "logIndex": "0x0",
          "removed": false
        }
      ],
      "logsBloom": "0x00000000000000000000000000000000000000000000000000000000000000000000000000000000000000000000000000000200000000000000000000200000000000000000000000000008000000000000000000000000000000002000000000000000000000000000000100000000000000000000000008000000000000000000000000040000000000000000000000000000000000000000000000000000020000000000000000000000000000000000000000000000000000000000000000000000000000200000000000000000000000002000000000000000000000000010000000000000000000000000002000000000000000000000000000000000",
      "type": "0x2",
      "transactionHash": "0xa5fc1bbe5dff5747b8363c84b628736c0a47784e70ed5e428595439811ca0f65",
      "transactionIndex": "0x0",
      "blockHash": "0x7cb479845397e77c69ccbfbdc96a9c76ad712ced09e4a33627df9a9eae75c962",
      "blockNumber": "0x152a723",
      "gasUsed": "0xb4bd",
      "effectiveGasPrice": "0xbb93a35",
      "blobGasPrice": "0x1",
      "from": "0xf39fd6e51aad88f6f4ce6ab8827279cfffb92266",
      "to": "0x2c56932223cde0d363266f1308c48ff1bf9f9041",
      "contractAddress": null
    },
    {
      "status": "0x1",
      "cumulativeGasUsed": "0xb4bd",
      "logs": [
        {
          "address": "0x91c8c745fd156d8624677aa924cdc1ef8173c69c",
          "topics": [
            "0x8c5be1e5ebec7d5bd14f71427d1e84f3dd0314c0f7b2291e5b200ac8c7c3b925",
            "0x000000000000000000000000f39fd6e51aad88f6f4ce6ab8827279cfffb92266",
            "0x000000000000000000000000c565eb7363769f8ffae0005285ccd854c631a0a0"
          ],
          "data": "0x0000000000000000000000000000000000000000000000000000000005f5e100",
          "blockHash": "0xaec51c00548524b0c6069b15b5a8cd67432067a263397fa7bd0989e1a9624189",
          "blockNumber": "0x152a724",
          "blockTimestamp": "0x67ef84b9",
          "transactionHash": "0xe386cf9df1b0d86e65da20674489f7762301a59d5251aa28e2ad5778ec85060b",
          "transactionIndex": "0x0",
          "logIndex": "0x0",
          "removed": false
        }
      ],
      "logsBloom": "0x00000000000000000000000000000000000000000000000000000000000000000000000000000000000000008000000000000000000000000000000000200000000000000000000000000008000000000000000000000000000000000000000000000000000000000000000100000000000000000020000008000000000000000000000000000000000000000000000000000000000000000000000000000000020000000000000000000002000000000000000000000000000000000000000000000000000000200000000000000000000000002000000000000000000000000010000000000000000000000000002000000000000000000000000000000000",
      "type": "0x2",
      "transactionHash": "0xe386cf9df1b0d86e65da20674489f7762301a59d5251aa28e2ad5778ec85060b",
      "transactionIndex": "0x0",
      "blockHash": "0xaec51c00548524b0c6069b15b5a8cd67432067a263397fa7bd0989e1a9624189",
      "blockNumber": "0x152a724",
      "gasUsed": "0xb4bd",
      "effectiveGasPrice": "0xa5a0f12",
      "blobGasPrice": "0x1",
      "from": "0xf39fd6e51aad88f6f4ce6ab8827279cfffb92266",
      "to": "0x91c8c745fd156d8624677aa924cdc1ef8173c69c",
      "contractAddress": null
    },
    {
      "status": "0x1",
      "cumulativeGasUsed": "0xb4bd",
      "logs": [
        {
          "address": "0xda796117bf6905dd8db2ff1ab4397f6d2c4adda3",
          "topics": [
            "0x8c5be1e5ebec7d5bd14f71427d1e84f3dd0314c0f7b2291e5b200ac8c7c3b925",
            "0x000000000000000000000000f39fd6e51aad88f6f4ce6ab8827279cfffb92266",
            "0x000000000000000000000000c565eb7363769f8ffae0005285ccd854c631a0a0"
          ],
          "data": "0x0000000000000000000000000000000000000000000000000000000005f5e100",
          "blockHash": "0x1aeac6ed908bff06b1016e6049dc3c2ff658a5923eb4776bcc19a391f3de981d",
          "blockNumber": "0x152a725",
          "blockTimestamp": "0x67ef84b9",
          "transactionHash": "0x7ff648b7ed52b986f6ede1caab2928808b24b04c9b4a8cee9c827c927a42ab69",
          "transactionIndex": "0x0",
          "logIndex": "0x0",
          "removed": false
        }
      ],
      "logsBloom": "0x00000000000000000000000000000000000000000000000000000000000000000000000000000000000000000000000000000000001000000000000000200000000000000000000000000008000000000000000000000000000000800000000000000000000000000000000100000000000000000000000008000000000000000000000000000000000000000000000000000000000000000000000000000000020000000000000000000000000000000000002000000000000000000000000000000000000000200000000000000000000000002000000000000000000000000010000000000000000000000000002000000000000000000000000000000000",
      "type": "0x2",
      "transactionHash": "0x7ff648b7ed52b986f6ede1caab2928808b24b04c9b4a8cee9c827c927a42ab69",
      "transactionIndex": "0x0",
      "blockHash": "0x1aeac6ed908bff06b1016e6049dc3c2ff658a5923eb4776bcc19a391f3de981d",
      "blockNumber": "0x152a725",
      "gasUsed": "0xb4bd",
      "effectiveGasPrice": "0x926ac63",
      "blobGasPrice": "0x1",
      "from": "0xf39fd6e51aad88f6f4ce6ab8827279cfffb92266",
      "to": "0xda796117bf6905dd8db2ff1ab4397f6d2c4adda3",
      "contractAddress": null
    },
    {
      "status": "0x1",
      "cumulativeGasUsed": "0x18154d",
      "logs": [
        {
          "address": "0xc565eb7363769f8ffae0005285ccd854c631a0a0",
          "topics": [
            "0x9c5d829b9b23efc461f9aeef91979ec04bb903feb3bee4f26d22114abfc7335b",
            "0x000000000000000000000000e69c18b54bbd6952684b7b0e7d49472b371bbd8c",
            "0x0000000000000000000000002c56932223cde0d363266f1308c48ff1bf9f9041",
            "0x00000000000000000000000091c8c745fd156d8624677aa924cdc1ef8173c69c"
          ],
          "data": "0x",
          "blockHash": "0xf3d70cb6f729dcd4f71840c89bc4ff7c6edf17274b2605bc70688ae024d8d974",
          "blockNumber": "0x152a726",
          "blockTimestamp": "0x67ef84b9",
          "transactionHash": "0xd49e0b7c7b5dd281898fe07b083a8bbfc6bbf6792f10c0bcffd3f1b9e45861e6",
          "transactionIndex": "0x0",
          "logIndex": "0x0",
          "removed": false
        },
        {
          "address": "0x2c56932223cde0d363266f1308c48ff1bf9f9041",
          "topics": [
            "0xddf252ad1be2c89b69c2b068fc378daa952ba7f163c4a11628f55a4df523b3ef",
            "0x000000000000000000000000f39fd6e51aad88f6f4ce6ab8827279cfffb92266",
            "0x000000000000000000000000e69c18b54bbd6952684b7b0e7d49472b371bbd8c"
          ],
          "data": "0x0000000000000000000000000000000000000000000000000000000000989680",
          "blockHash": "0xf3d70cb6f729dcd4f71840c89bc4ff7c6edf17274b2605bc70688ae024d8d974",
          "blockNumber": "0x152a726",
          "blockTimestamp": "0x67ef84b9",
          "transactionHash": "0xd49e0b7c7b5dd281898fe07b083a8bbfc6bbf6792f10c0bcffd3f1b9e45861e6",
          "transactionIndex": "0x0",
          "logIndex": "0x1",
          "removed": false
        },
        {
          "address": "0x91c8c745fd156d8624677aa924cdc1ef8173c69c",
          "topics": [
            "0xddf252ad1be2c89b69c2b068fc378daa952ba7f163c4a11628f55a4df523b3ef",
            "0x000000000000000000000000f39fd6e51aad88f6f4ce6ab8827279cfffb92266",
            "0x000000000000000000000000e69c18b54bbd6952684b7b0e7d49472b371bbd8c"
          ],
          "data": "0x0000000000000000000000000000000000000000000000000000000000989680",
          "blockHash": "0xf3d70cb6f729dcd4f71840c89bc4ff7c6edf17274b2605bc70688ae024d8d974",
          "blockNumber": "0x152a726",
          "blockTimestamp": "0x67ef84b9",
          "transactionHash": "0xd49e0b7c7b5dd281898fe07b083a8bbfc6bbf6792f10c0bcffd3f1b9e45861e6",
          "transactionIndex": "0x0",
          "logIndex": "0x2",
          "removed": false
        },
        {
          "address": "0xe69c18b54bbd6952684b7b0e7d49472b371bbd8c",
          "topics": [
            "0xddf252ad1be2c89b69c2b068fc378daa952ba7f163c4a11628f55a4df523b3ef",
            "0x0000000000000000000000000000000000000000000000000000000000000000",
            "0x000000000000000000000000f39fd6e51aad88f6f4ce6ab8827279cfffb92266"
          ],
          "data": "0x0000000000000000000000000000000000000000000000000000000000989680",
          "blockHash": "0xf3d70cb6f729dcd4f71840c89bc4ff7c6edf17274b2605bc70688ae024d8d974",
          "blockNumber": "0x152a726",
          "blockTimestamp": "0x67ef84b9",
          "transactionHash": "0xd49e0b7c7b5dd281898fe07b083a8bbfc6bbf6792f10c0bcffd3f1b9e45861e6",
          "transactionIndex": "0x0",
          "logIndex": "0x3",
          "removed": false
        },
        {
          "address": "0xe69c18b54bbd6952684b7b0e7d49472b371bbd8c",
          "topics": [
            "0x64b83944e79c3ce8d4c297411de637c3e102d064677aac0c163976ebdcd6f50e",
            "0x000000000000000000000000f39fd6e51aad88f6f4ce6ab8827279cfffb92266",
            "0x0000000000000000000000000000000000000000000000000000000000989680",
            "0x0000000000000000000000000000000000000000000000000000000000989680"
          ],
          "data": "0x0000000000000000000000000000000000000000000000000000000000989680",
          "blockHash": "0xf3d70cb6f729dcd4f71840c89bc4ff7c6edf17274b2605bc70688ae024d8d974",
          "blockNumber": "0x152a726",
          "blockTimestamp": "0x67ef84b9",
          "transactionHash": "0xd49e0b7c7b5dd281898fe07b083a8bbfc6bbf6792f10c0bcffd3f1b9e45861e6",
          "transactionIndex": "0x0",
          "logIndex": "0x4",
          "removed": false
        }
      ],
      "logsBloom": "0x00000000880000000200000000000000800000008004000000000000000000000000000000000000000000008000000000000600200000000000200000000000008001040000000000000008800000000000000000000000001000002000000000000000020000000000000100000800000000000020000000000010000000880000000040042000000000000000000000000000000000000000000000000000020000000000000000000002000000000000200000000000000000000000000000000002000000200800000000000000000000002000000000000000020020000000000000000000000000000000008000000000000000000000000000000000",
      "type": "0x2",
      "transactionHash": "0xd49e0b7c7b5dd281898fe07b083a8bbfc6bbf6792f10c0bcffd3f1b9e45861e6",
      "transactionIndex": "0x0",
      "blockHash": "0xf3d70cb6f729dcd4f71840c89bc4ff7c6edf17274b2605bc70688ae024d8d974",
      "blockNumber": "0x152a726",
      "gasUsed": "0x18154d",
      "effectiveGasPrice": "0x8199cb4",
      "blobGasPrice": "0x1",
      "from": "0xf39fd6e51aad88f6f4ce6ab8827279cfffb92266",
      "to": "0xc565eb7363769f8ffae0005285ccd854c631a0a0",
      "contractAddress": null
    },
    {
      "status": "0x1",
      "cumulativeGasUsed": "0x17d263",
      "logs": [
        {
          "address": "0xc565eb7363769f8ffae0005285ccd854c631a0a0",
          "topics": [
            "0x9c5d829b9b23efc461f9aeef91979ec04bb903feb3bee4f26d22114abfc7335b",
            "0x000000000000000000000000895ff517fbfe6f2094a5a853e992f176389a2a3f",
            "0x0000000000000000000000002c56932223cde0d363266f1308c48ff1bf9f9041",
            "0x000000000000000000000000da796117bf6905dd8db2ff1ab4397f6d2c4adda3"
          ],
          "data": "0x",
          "blockHash": "0xf02eede0b7ef39d038e6ef24207c2549a4ef24e52909bb98bc80b218947c39a1",
          "blockNumber": "0x152a727",
          "blockTimestamp": "0x67ef84b9",
          "transactionHash": "0x3567cf010288b1d8b0a5ccb45caa6e42f35a0ccf87442371fc6727c4f7505dfd",
          "transactionIndex": "0x0",
          "logIndex": "0x0",
          "removed": false
        },
        {
          "address": "0x2c56932223cde0d363266f1308c48ff1bf9f9041",
          "topics": [
            "0xddf252ad1be2c89b69c2b068fc378daa952ba7f163c4a11628f55a4df523b3ef",
            "0x000000000000000000000000f39fd6e51aad88f6f4ce6ab8827279cfffb92266",
            "0x000000000000000000000000895ff517fbfe6f2094a5a853e992f176389a2a3f"
          ],
          "data": "0x0000000000000000000000000000000000000000000000000000000001312d00",
          "blockHash": "0xf02eede0b7ef39d038e6ef24207c2549a4ef24e52909bb98bc80b218947c39a1",
          "blockNumber": "0x152a727",
          "blockTimestamp": "0x67ef84b9",
          "transactionHash": "0x3567cf010288b1d8b0a5ccb45caa6e42f35a0ccf87442371fc6727c4f7505dfd",
          "transactionIndex": "0x0",
          "logIndex": "0x1",
          "removed": false
        },
        {
          "address": "0xda796117bf6905dd8db2ff1ab4397f6d2c4adda3",
          "topics": [
            "0xddf252ad1be2c89b69c2b068fc378daa952ba7f163c4a11628f55a4df523b3ef",
            "0x000000000000000000000000f39fd6e51aad88f6f4ce6ab8827279cfffb92266",
            "0x000000000000000000000000895ff517fbfe6f2094a5a853e992f176389a2a3f"
          ],
          "data": "0x0000000000000000000000000000000000000000000000000000000002625a00",
          "blockHash": "0xf02eede0b7ef39d038e6ef24207c2549a4ef24e52909bb98bc80b218947c39a1",
          "blockNumber": "0x152a727",
          "blockTimestamp": "0x67ef84b9",
          "transactionHash": "0x3567cf010288b1d8b0a5ccb45caa6e42f35a0ccf87442371fc6727c4f7505dfd",
          "transactionIndex": "0x0",
          "logIndex": "0x2",
          "removed": false
        },
        {
          "address": "0x895ff517fbfe6f2094a5a853e992f176389a2a3f",
          "topics": [
            "0xddf252ad1be2c89b69c2b068fc378daa952ba7f163c4a11628f55a4df523b3ef",
            "0x0000000000000000000000000000000000000000000000000000000000000000",
            "0x000000000000000000000000f39fd6e51aad88f6f4ce6ab8827279cfffb92266"
          ],
          "data": "0x0000000000000000000000000000000000000000000000000000000001af956f",
          "blockHash": "0xf02eede0b7ef39d038e6ef24207c2549a4ef24e52909bb98bc80b218947c39a1",
          "blockNumber": "0x152a727",
          "blockTimestamp": "0x67ef84b9",
          "transactionHash": "0x3567cf010288b1d8b0a5ccb45caa6e42f35a0ccf87442371fc6727c4f7505dfd",
          "transactionIndex": "0x0",
          "logIndex": "0x3",
          "removed": false
        },
        {
          "address": "0x895ff517fbfe6f2094a5a853e992f176389a2a3f",
          "topics": [
            "0x64b83944e79c3ce8d4c297411de637c3e102d064677aac0c163976ebdcd6f50e",
            "0x000000000000000000000000f39fd6e51aad88f6f4ce6ab8827279cfffb92266",
            "0x0000000000000000000000000000000000000000000000000000000001312d00",
            "0x0000000000000000000000000000000000000000000000000000000002625a00"
          ],
          "data": "0x0000000000000000000000000000000000000000000000000000000001af956f",
          "blockHash": "0xf02eede0b7ef39d038e6ef24207c2549a4ef24e52909bb98bc80b218947c39a1",
          "blockNumber": "0x152a727",
          "blockTimestamp": "0x67ef84b9",
          "transactionHash": "0x3567cf010288b1d8b0a5ccb45caa6e42f35a0ccf87442371fc6727c4f7505dfd",
          "transactionIndex": "0x0",
          "logIndex": "0x4",
          "removed": false
        }
      ],
      "logsBloom": "0x00000000000000000000000000000000800001000004000000000000020000000000000000000000004000000000000000000220041000000000000000004000000001040000000000000008800000000000000000000200000000802000000000000000420000000000000100000800000000000000020000010010000000080000220000040000000000000000000000000000000000000000000001000000020000000000000000000000000000000000202000000000000000000000000000000002000000200800000000000000000000002000000000000000020020000000000000000000000000000000008000000100000000000000000000002000",
      "type": "0x2",
      "transactionHash": "0x3567cf010288b1d8b0a5ccb45caa6e42f35a0ccf87442371fc6727c4f7505dfd",
      "transactionIndex": "0x0",
      "blockHash": "0xf02eede0b7ef39d038e6ef24207c2549a4ef24e52909bb98bc80b218947c39a1",
      "blockNumber": "0x152a727",
      "gasUsed": "0x17d263",
      "effectiveGasPrice": "0x7423bd2",
      "blobGasPrice": "0x1",
      "from": "0xf39fd6e51aad88f6f4ce6ab8827279cfffb92266",
      "to": "0xc565eb7363769f8ffae0005285ccd854c631a0a0",
      "contractAddress": null
    },
    {
      "status": "0x1",
      "cumulativeGasUsed": "0x17ace9",
      "logs": [
        {
          "address": "0xc565eb7363769f8ffae0005285ccd854c631a0a0",
          "topics": [
            "0x9c5d829b9b23efc461f9aeef91979ec04bb903feb3bee4f26d22114abfc7335b",
            "0x000000000000000000000000b823aefa691a85c47f807ca9ac4ef621fb06c94c",
            "0x00000000000000000000000091c8c745fd156d8624677aa924cdc1ef8173c69c",
            "0x000000000000000000000000da796117bf6905dd8db2ff1ab4397f6d2c4adda3"
          ],
          "data": "0x",
          "blockHash": "0x67ed1537ecdc1ba356c0ad1897748f0a375707b94eb1bb67b819f7713f2d4823",
          "blockNumber": "0x152a728",
          "blockTimestamp": "0x67ef84b9",
          "transactionHash": "0x3014d3a4aaa9509fd68c40b20723f677f379a5a58efbc76d2edbdd96be731c09",
          "transactionIndex": "0x0",
          "logIndex": "0x0",
          "removed": false
        },
        {
          "address": "0x91c8c745fd156d8624677aa924cdc1ef8173c69c",
          "topics": [
            "0xddf252ad1be2c89b69c2b068fc378daa952ba7f163c4a11628f55a4df523b3ef",
            "0x000000000000000000000000f39fd6e51aad88f6f4ce6ab8827279cfffb92266",
            "0x000000000000000000000000b823aefa691a85c47f807ca9ac4ef621fb06c94c"
          ],
          "data": "0x0000000000000000000000000000000000000000000000000000000002625a00",
          "blockHash": "0x67ed1537ecdc1ba356c0ad1897748f0a375707b94eb1bb67b819f7713f2d4823",
          "blockNumber": "0x152a728",
          "blockTimestamp": "0x67ef84b9",
          "transactionHash": "0x3014d3a4aaa9509fd68c40b20723f677f379a5a58efbc76d2edbdd96be731c09",
          "transactionIndex": "0x0",
          "logIndex": "0x1",
          "removed": false
        },
        {
          "address": "0xda796117bf6905dd8db2ff1ab4397f6d2c4adda3",
          "topics": [
            "0xddf252ad1be2c89b69c2b068fc378daa952ba7f163c4a11628f55a4df523b3ef",
            "0x000000000000000000000000f39fd6e51aad88f6f4ce6ab8827279cfffb92266",
            "0x000000000000000000000000b823aefa691a85c47f807ca9ac4ef621fb06c94c"
          ],
          "data": "0x0000000000000000000000000000000000000000000000000000000003938700",
          "blockHash": "0x67ed1537ecdc1ba356c0ad1897748f0a375707b94eb1bb67b819f7713f2d4823",
          "blockNumber": "0x152a728",
          "blockTimestamp": "0x67ef84b9",
          "transactionHash": "0x3014d3a4aaa9509fd68c40b20723f677f379a5a58efbc76d2edbdd96be731c09",
          "transactionIndex": "0x0",
          "logIndex": "0x2",
          "removed": false
        },
        {
          "address": "0xb823aefa691a85c47f807ca9ac4ef621fb06c94c",
          "topics": [
            "0xddf252ad1be2c89b69c2b068fc378daa952ba7f163c4a11628f55a4df523b3ef",
            "0x0000000000000000000000000000000000000000000000000000000000000000",
            "0x000000000000000000000000f39fd6e51aad88f6f4ce6ab8827279cfffb92266"
          ],
          "data": "0x0000000000000000000000000000000000000000000000000000000002eb8662",
          "blockHash": "0x67ed1537ecdc1ba356c0ad1897748f0a375707b94eb1bb67b819f7713f2d4823",
          "blockNumber": "0x152a728",
          "blockTimestamp": "0x67ef84b9",
          "transactionHash": "0x3014d3a4aaa9509fd68c40b20723f677f379a5a58efbc76d2edbdd96be731c09",
          "transactionIndex": "0x0",
          "logIndex": "0x3",
          "removed": false
        },
        {
          "address": "0xb823aefa691a85c47f807ca9ac4ef621fb06c94c",
          "topics": [
            "0x64b83944e79c3ce8d4c297411de637c3e102d064677aac0c163976ebdcd6f50e",
            "0x000000000000000000000000f39fd6e51aad88f6f4ce6ab8827279cfffb92266",
            "0x0000000000000000000000000000000000000000000000000000000002625a00",
            "0x0000000000000000000000000000000000000000000000000000000003938700"
          ],
          "data": "0x0000000000000000000000000000000000000000000000000000000002eb8662",
          "blockHash": "0x67ed1537ecdc1ba356c0ad1897748f0a375707b94eb1bb67b819f7713f2d4823",
          "blockNumber": "0x152a728",
          "blockTimestamp": "0x67ef84b9",
          "transactionHash": "0x3014d3a4aaa9509fd68c40b20723f677f379a5a58efbc76d2edbdd96be731c09",
          "transactionIndex": "0x0",
          "logIndex": "0x4",
          "removed": false
        }
      ],
      "logsBloom": "0x00000000000000000000000000000000800000008000000000000000020000000000000000000200000000208000000000000000041000000000200000000004000001040000000000000008800000000000000000000200000000802000000000000000020000000000000100000800000000000020000000000010000000000000020040000000000000000000000000000000000000000000000001000000020000000000000000000002000000000000202000000000000000000000000000000002004000200800000000204000000080002000000000000000020030000000000000000000100000000000000000000100000000000000000000000000",
      "type": "0x2",
      "transactionHash": "0x3014d3a4aaa9509fd68c40b20723f677f379a5a58efbc76d2edbdd96be731c09",
      "transactionIndex": "0x0",
      "blockHash": "0x67ed1537ecdc1ba356c0ad1897748f0a375707b94eb1bb67b819f7713f2d4823",
      "blockNumber": "0x152a728",
      "gasUsed": "0x17ace9",
      "effectiveGasPrice": "0x6833677",
      "blobGasPrice": "0x1",
      "from": "0xf39fd6e51aad88f6f4ce6ab8827279cfffb92266",
      "to": "0xc565eb7363769f8ffae0005285ccd854c631a0a0",
      "contractAddress": null
    },
    {
      "status": "0x1",
      "cumulativeGasUsed": "0x1372d",
      "logs": [
        {
          "address": "0x2c56932223cde0d363266f1308c48ff1bf9f9041",
          "topics": [
            "0xddf252ad1be2c89b69c2b068fc378daa952ba7f163c4a11628f55a4df523b3ef",
            "0x000000000000000000000000f39fd6e51aad88f6f4ce6ab8827279cfffb92266",
            "0x000000000000000000000000e69c18b54bbd6952684b7b0e7d49472b371bbd8c"
          ],
          "data": "0x00000000000000000000000000000000000000000000000000000000001e8480",
          "blockHash": "0x0325616e37f406ac583ab00c0910dd640fa9ab853fd470f84977cd0ed787b4b9",
          "blockNumber": "0x152a729",
          "blockTimestamp": "0x67ef84b9",
          "transactionHash": "0x20fcd8273965c1238ff006da8f0cf74379ea51d0af3c0299fce2c4ad7494f7a1",
          "transactionIndex": "0x0",
          "logIndex": "0x0",
          "removed": false
        },
        {
          "address": "0x91c8c745fd156d8624677aa924cdc1ef8173c69c",
          "topics": [
            "0xddf252ad1be2c89b69c2b068fc378daa952ba7f163c4a11628f55a4df523b3ef",
            "0x000000000000000000000000e69c18b54bbd6952684b7b0e7d49472b371bbd8c",
            "0x000000000000000000000000f39fd6e51aad88f6f4ce6ab8827279cfffb92266"
          ],
          "data": "0x0000000000000000000000000000000000000000000000000000000000195e21",
          "blockHash": "0x0325616e37f406ac583ab00c0910dd640fa9ab853fd470f84977cd0ed787b4b9",
          "blockNumber": "0x152a729",
          "blockTimestamp": "0x67ef84b9",
          "transactionHash": "0x20fcd8273965c1238ff006da8f0cf74379ea51d0af3c0299fce2c4ad7494f7a1",
          "transactionIndex": "0x0",
          "logIndex": "0x1",
          "removed": false
        },
        {
          "address": "0xe69c18b54bbd6952684b7b0e7d49472b371bbd8c",
          "topics": [
            "0x18704ae982dcd24a1beeeed3ecf045ab0520d7b7519b97adf3e4f40bf7efe339",
            "0x000000000000000000000000f39fd6e51aad88f6f4ce6ab8827279cfffb92266",
            "0x00000000000000000000000000000000000000000000000000000000001e8480",
            "0x0000000000000000000000000000000000000000000000000000000000195e21"
          ],
          "data": "0x",
          "blockHash": "0x0325616e37f406ac583ab00c0910dd640fa9ab853fd470f84977cd0ed787b4b9",
          "blockNumber": "0x152a729",
          "blockTimestamp": "0x67ef84b9",
          "transactionHash": "0x20fcd8273965c1238ff006da8f0cf74379ea51d0af3c0299fce2c4ad7494f7a1",
          "transactionIndex": "0x0",
          "logIndex": "0x2",
          "removed": false
        }
      ],
      "logsBloom": "0x00000000800000000000000000000000000000000000000000000000000000002000000000000000000000008000000000000200200000000000000000000000008000002000000000000008000000000000000000010000001000002000000000000000000000000000100100000000000000000022000000000010000000800000000000042000000000000000000000000000000000000000000000000000000000000000000000000002000000000000000000000000000000000000000000000002000040200000000000000002080000002000000000000000000000000000000000000000000000000000000000000000080000000000000000000000",
      "type": "0x2",
      "transactionHash": "0x20fcd8273965c1238ff006da8f0cf74379ea51d0af3c0299fce2c4ad7494f7a1",
      "transactionIndex": "0x0",
      "blockHash": "0x0325616e37f406ac583ab00c0910dd640fa9ab853fd470f84977cd0ed787b4b9",
      "blockNumber": "0x152a729",
      "gasUsed": "0x1372d",
      "effectiveGasPrice": "0x5d9e53c",
      "blobGasPrice": "0x1",
      "from": "0xf39fd6e51aad88f6f4ce6ab8827279cfffb92266",
      "to": "0xc565eb7363769f8ffae0005285ccd854c631a0a0",
      "contractAddress": null
    },
    {
      "status": "0x1",
      "cumulativeGasUsed": "0x179f9",
      "logs": [
        {
          "address": "0x2c56932223cde0d363266f1308c48ff1bf9f9041",
          "topics": [
            "0xddf252ad1be2c89b69c2b068fc378daa952ba7f163c4a11628f55a4df523b3ef",
            "0x000000000000000000000000f39fd6e51aad88f6f4ce6ab8827279cfffb92266",
            "0x000000000000000000000000895ff517fbfe6f2094a5a853e992f176389a2a3f"
          ],
          "data": "0x00000000000000000000000000000000000000000000000000000000004c4b40",
          "blockHash": "0x1b7f539632b53e49dfb463db766a82f5adfb01cc7a1651d70f517d2abda01cae",
          "blockNumber": "0x152a72a",
          "blockTimestamp": "0x67ef84b9",
          "transactionHash": "0x23a84e55874693bc9b7fa9d4cdbfa88adacdce7b0d4ac21fdcfdbeb804e2d1f2",
          "transactionIndex": "0x0",
          "logIndex": "0x0",
          "removed": false
        },
        {
          "address": "0xda796117bf6905dd8db2ff1ab4397f6d2c4adda3",
          "topics": [
            "0xddf252ad1be2c89b69c2b068fc378daa952ba7f163c4a11628f55a4df523b3ef",
            "0x000000000000000000000000895ff517fbfe6f2094a5a853e992f176389a2a3f",
            "0x000000000000000000000000f39fd6e51aad88f6f4ce6ab8827279cfffb92266"
          ],
          "data": "0x000000000000000000000000000000000000000000000000000000000079c6f4",
          "blockHash": "0x1b7f539632b53e49dfb463db766a82f5adfb01cc7a1651d70f517d2abda01cae",
          "blockNumber": "0x152a72a",
          "blockTimestamp": "0x67ef84b9",
          "transactionHash": "0x23a84e55874693bc9b7fa9d4cdbfa88adacdce7b0d4ac21fdcfdbeb804e2d1f2",
          "transactionIndex": "0x0",
          "logIndex": "0x1",
          "removed": false
        },
        {
          "address": "0x895ff517fbfe6f2094a5a853e992f176389a2a3f",
          "topics": [
            "0x18704ae982dcd24a1beeeed3ecf045ab0520d7b7519b97adf3e4f40bf7efe339",
            "0x000000000000000000000000f39fd6e51aad88f6f4ce6ab8827279cfffb92266",
            "0x00000000000000000000000000000000000000000000000000000000004c4b40",
            "0x000000000000000000000000000000000000000000000000000000000079c6f4"
          ],
          "data": "0x",
          "blockHash": "0x1b7f539632b53e49dfb463db766a82f5adfb01cc7a1651d70f517d2abda01cae",
          "blockNumber": "0x152a72a",
          "blockTimestamp": "0x67ef84b9",
          "transactionHash": "0x23a84e55874693bc9b7fa9d4cdbfa88adacdce7b0d4ac21fdcfdbeb804e2d1f2",
          "transactionIndex": "0x0",
          "logIndex": "0x2",
          "removed": false
        }
      ],
      "logsBloom": "0x08000000000000000000000000000000000000000000000000000000000000002000000000000000004000000000000000000220001000000000000000200000000000000000000000000008000008000000000000000000000000802000000000000000400000000000000100000000000000000000020000000010000001000000200002040000000000000000000000000000000000000000000000000000000000000000000000000000000000000000002000000000000000000000000000000002000000200000000000000002000000002000000000000000000000000000000000000000000000000000000000000000080000000000000000012000",
      "type": "0x2",
      "transactionHash": "0x23a84e55874693bc9b7fa9d4cdbfa88adacdce7b0d4ac21fdcfdbeb804e2d1f2",
      "transactionIndex": "0x0",
      "blockHash": "0x1b7f539632b53e49dfb463db766a82f5adfb01cc7a1651d70f517d2abda01cae",
      "blockNumber": "0x152a72a",
      "gasUsed": "0x179f9",
      "effectiveGasPrice": "0x53676ef",
      "blobGasPrice": "0x1",
      "from": "0xf39fd6e51aad88f6f4ce6ab8827279cfffb92266",
      "to": "0xc565eb7363769f8ffae0005285ccd854c631a0a0",
      "contractAddress": null
    },
    {
      "status": "0x1",
      "cumulativeGasUsed": "0x1372d",
      "logs": [
        {
          "address": "0x91c8c745fd156d8624677aa924cdc1ef8173c69c",
          "topics": [
            "0xddf252ad1be2c89b69c2b068fc378daa952ba7f163c4a11628f55a4df523b3ef",
            "0x000000000000000000000000f39fd6e51aad88f6f4ce6ab8827279cfffb92266",
            "0x000000000000000000000000b823aefa691a85c47f807ca9ac4ef621fb06c94c"
          ],
          "data": "0x0000000000000000000000000000000000000000000000000000000000989680",
          "blockHash": "0x1bf8eee0266dbdee81201837c2f63dcc6928fa1171b60750261cdd10c6c388e3",
          "blockNumber": "0x152a72b",
          "blockTimestamp": "0x67ef84b9",
          "transactionHash": "0x3ec7798827d6306e41053f36f32ede38cc789015efa7e6e128fc8bf27dced482",
          "transactionIndex": "0x0",
          "logIndex": "0x0",
          "removed": false
        },
        {
          "address": "0xda796117bf6905dd8db2ff1ab4397f6d2c4adda3",
          "topics": [
            "0xddf252ad1be2c89b69c2b068fc378daa952ba7f163c4a11628f55a4df523b3ef",
            "0x000000000000000000000000b823aefa691a85c47f807ca9ac4ef621fb06c94c",
            "0x000000000000000000000000f39fd6e51aad88f6f4ce6ab8827279cfffb92266"
          ],
          "data": "0x0000000000000000000000000000000000000000000000000000000000b6aa6e",
          "blockHash": "0x1bf8eee0266dbdee81201837c2f63dcc6928fa1171b60750261cdd10c6c388e3",
          "blockNumber": "0x152a72b",
          "blockTimestamp": "0x67ef84b9",
          "transactionHash": "0x3ec7798827d6306e41053f36f32ede38cc789015efa7e6e128fc8bf27dced482",
          "transactionIndex": "0x0",
          "logIndex": "0x1",
          "removed": false
        },
        {
          "address": "0xb823aefa691a85c47f807ca9ac4ef621fb06c94c",
          "topics": [
            "0x18704ae982dcd24a1beeeed3ecf045ab0520d7b7519b97adf3e4f40bf7efe339",
            "0x000000000000000000000000f39fd6e51aad88f6f4ce6ab8827279cfffb92266",
            "0x0000000000000000000000000000000000000000000000000000000000989680",
            "0x0000000000000000000000000000000000000000000000000000000000b6aa6e"
          ],
          "data": "0x",
          "blockHash": "0x1bf8eee0266dbdee81201837c2f63dcc6928fa1171b60750261cdd10c6c388e3",
          "blockNumber": "0x152a72b",
          "blockTimestamp": "0x67ef84b9",
          "transactionHash": "0x3ec7798827d6306e41053f36f32ede38cc789015efa7e6e128fc8bf27dced482",
          "transactionIndex": "0x0",
          "logIndex": "0x2",
          "removed": false
        }
      ],
      "logsBloom": "0x00000000080000000200000000000000000000000000000000000000000000002000000000000000000000208000000000000400001000000000000000000000000000000000000000000008004000000000000000000000000000800000000000000000000020000000000100000000000000000020000000000010000000000000000000000000000000000000000000000000000000000000000000000000000000000000000000000002000000000000002002000000000000000000000000000002004000200000000000004002000080002000000000000000000010000000000000000000100000000000000000000000080000000000000000000000",
      "type": "0x2",
      "transactionHash": "0x3ec7798827d6306e41053f36f32ede38cc789015efa7e6e128fc8bf27dced482",
      "transactionIndex": "0x0",
      "blockHash": "0x1bf8eee0266dbdee81201837c2f63dcc6928fa1171b60750261cdd10c6c388e3",
      "blockNumber": "0x152a72b",
      "gasUsed": "0x1372d",
      "effectiveGasPrice": "0x4a78241",
      "blobGasPrice": "0x1",
      "from": "0xf39fd6e51aad88f6f4ce6ab8827279cfffb92266",
      "to": "0xc565eb7363769f8ffae0005285ccd854c631a0a0",
      "contractAddress": null
    },
    {
      "status": "0x1",
      "cumulativeGasUsed": "0xc812",
      "logs": [
        {
          "address": "0x2c56932223cde0d363266f1308c48ff1bf9f9041",
          "topics": [
            "0xddf252ad1be2c89b69c2b068fc378daa952ba7f163c4a11628f55a4df523b3ef",
            "0x0000000000000000000000000000000000000000000000000000000000000000",
            "0x00000000000000000000000070997970c51812dc3a010c7d01b50e0d17dc79c8"
          ],
          "data": "0x0000000000000000000000000000000000000000000000000000000005f5e100",
          "blockHash": "0x1b288a3cb4bf9446bf3ba286d6c97ab46bfce30ecc75603cd4859482ca9bd43b",
          "blockNumber": "0x152a72c",
          "blockTimestamp": "0x67ef84b9",
          "transactionHash": "0x8586a76800fb21dcbf6ac15616e3eb7f84e72649926767c2da840425cf3d303c",
          "transactionIndex": "0x0",
          "logIndex": "0x0",
          "removed": false
        }
      ],
      "logsBloom": "0x00000000000000000002000000000000000000000000000000000000000000000000000000000000000000000000000000000200000000000000000000000000000000000000000000000008000000000000000000000000000000002000000000000800020000000000000000000800000000000000000000000010000000000000000000040000000000000000000000000000000000000000000000000000000000000000000000000000000000000000000000000000000000000000000000000002000000000000000000000000000000000000000000000000000020000000000000000000000000000000000001000000000000000000000000000000",
      "type": "0x2",
      "transactionHash": "0x8586a76800fb21dcbf6ac15616e3eb7f84e72649926767c2da840425cf3d303c",
      "transactionIndex": "0x0",
      "blockHash": "0x1b288a3cb4bf9446bf3ba286d6c97ab46bfce30ecc75603cd4859482ca9bd43b",
      "blockNumber": "0x152a72c",
      "gasUsed": "0xc812",
      "effectiveGasPrice": "0x42a34da",
      "blobGasPrice": "0x1",
      "from": "0x70997970c51812dc3a010c7d01b50e0d17dc79c8",
      "to": "0x2c56932223cde0d363266f1308c48ff1bf9f9041",
      "contractAddress": null
    },
    {
      "status": "0x1",
      "cumulativeGasUsed": "0xc812",
      "logs": [
        {
          "address": "0x91c8c745fd156d8624677aa924cdc1ef8173c69c",
          "topics": [
            "0xddf252ad1be2c89b69c2b068fc378daa952ba7f163c4a11628f55a4df523b3ef",
            "0x0000000000000000000000000000000000000000000000000000000000000000",
            "0x00000000000000000000000070997970c51812dc3a010c7d01b50e0d17dc79c8"
          ],
          "data": "0x0000000000000000000000000000000000000000000000000000000005f5e100",
          "blockHash": "0x5f9a9ecdf66f2a531ca0bbc5c4fa5c5489f6cc0b9e66f50b03d3282cd91f5c82",
          "blockNumber": "0x152a72d",
          "blockTimestamp": "0x67ef84b9",
          "transactionHash": "0x06354321292184a6840d2e9ffdd22659e28ef6e939ce89ac789461a909b20c8f",
          "transactionIndex": "0x0",
          "logIndex": "0x0",
          "removed": false
        }
      ],
      "logsBloom": "0x00000000000000000002000000000000000000000000000000000000000000000000000000000000000000008000000000000000000000000000000000000000000000000000000000000008000000000000000000000000000000000000000000000800020000000000000000000800000000000020000000000010000000000000000000000000000000000000000000000000000000000000000000000000000000000000000000000002000000000000000000000000000000000000000000000002000000000000000000000000000000000000000000000000000020000000000000000000000000000000000001000000000000000000000000000000",
      "type": "0x2",
      "transactionHash": "0x06354321292184a6840d2e9ffdd22659e28ef6e939ce89ac789461a909b20c8f",
      "transactionIndex": "0x0",
      "blockHash": "0x5f9a9ecdf66f2a531ca0bbc5c4fa5c5489f6cc0b9e66f50b03d3282cd91f5c82",
      "blockNumber": "0x152a72d",
      "gasUsed": "0xc812",
      "effectiveGasPrice": "0x3bc52ae",
      "blobGasPrice": "0x1",
      "from": "0x70997970c51812dc3a010c7d01b50e0d17dc79c8",
      "to": "0x91c8c745fd156d8624677aa924cdc1ef8173c69c",
      "contractAddress": null
    },
    {
      "status": "0x1",
      "cumulativeGasUsed": "0xc812",
      "logs": [
        {
          "address": "0xda796117bf6905dd8db2ff1ab4397f6d2c4adda3",
          "topics": [
            "0xddf252ad1be2c89b69c2b068fc378daa952ba7f163c4a11628f55a4df523b3ef",
            "0x0000000000000000000000000000000000000000000000000000000000000000",
            "0x00000000000000000000000070997970c51812dc3a010c7d01b50e0d17dc79c8"
          ],
          "data": "0x0000000000000000000000000000000000000000000000000000000005f5e100",
          "blockHash": "0xbee49d4866bbd13d4d4ea800cd1844b583cc383b5bd546469a4089776e6bd132",
          "blockNumber": "0x152a72e",
          "blockTimestamp": "0x67ef84b9",
          "transactionHash": "0xe804a76ebf96a673c647ecbb466a724f0ee2d477e1068d94c016eca53c07443f",
          "transactionIndex": "0x0",
          "logIndex": "0x0",
          "removed": false
        }
      ],
      "logsBloom": "0x00000000000000000002000000000000000000000000000000000000000000000000000000000000000000000000000000000000001000000000000000000000000000000000000000000008000000000000000000000000000000800000000000000800020000000000000000000800000000000000000000000010000000000000000000000000000000000000000000000000000000000000000000000000000000000000000000000000000000000000002000000000000000000000000000000002000000000000000000000000000000000000000000000000000020000000000000000000000000000000000001000000000000000000000000000000",
      "type": "0x2",
      "transactionHash": "0xe804a76ebf96a673c647ecbb466a724f0ee2d477e1068d94c016eca53c07443f",
      "transactionIndex": "0x0",
      "blockHash": "0xbee49d4866bbd13d4d4ea800cd1844b583cc383b5bd546469a4089776e6bd132",
      "blockNumber": "0x152a72e",
      "gasUsed": "0xc812",
      "effectiveGasPrice": "0x35c22c1",
      "blobGasPrice": "0x1",
      "from": "0x70997970c51812dc3a010c7d01b50e0d17dc79c8",
      "to": "0xda796117bf6905dd8db2ff1ab4397f6d2c4adda3",
      "contractAddress": null
    },
    {
      "status": "0x1",
      "cumulativeGasUsed": "0xb4bd",
      "logs": [
        {
          "address": "0x2c56932223cde0d363266f1308c48ff1bf9f9041",
          "topics": [
            "0x8c5be1e5ebec7d5bd14f71427d1e84f3dd0314c0f7b2291e5b200ac8c7c3b925",
            "0x00000000000000000000000070997970c51812dc3a010c7d01b50e0d17dc79c8",
            "0x000000000000000000000000c565eb7363769f8ffae0005285ccd854c631a0a0"
          ],
          "data": "0x0000000000000000000000000000000000000000000000000000000005f5e100",
          "blockHash": "0xa32e02cc1d40919b1f341dbdc0dbd38d62fe3e2522a517569a6a5964babf176f",
          "blockNumber": "0x152a72f",
          "blockTimestamp": "0x67ef84b9",
          "transactionHash": "0x11c74d7268cf1f00becde9f3e3cf97738dea4a9afe5eda39c1b39c89e4fd47c5",
          "transactionIndex": "0x0",
          "logIndex": "0x0",
          "removed": false
        }
      ],
      "logsBloom": "0x00000000000000000002000000000000000000000000000000000000000000000000000000000000000000000000000000000200000000000000000000200000000000000000000000000008000000000000000000000000000000002000000000000800000000000000000000000000000000000000000008000000000000000000000000040000000000000000000000000000000000000000000000000000020000000000000000000000000000000000000000000000000000000000000000000000000000000000000000000000000000000000000000000000000000000010000000000000000000000000002001000000000000000000000000000000",
      "type": "0x2",
      "transactionHash": "0x11c74d7268cf1f00becde9f3e3cf97738dea4a9afe5eda39c1b39c89e4fd47c5",
      "transactionIndex": "0x0",
      "blockHash": "0xa32e02cc1d40919b1f341dbdc0dbd38d62fe3e2522a517569a6a5964babf176f",
      "blockNumber": "0x152a72f",
      "gasUsed": "0xb4bd",
      "effectiveGasPrice": "0x307f00b",
      "blobGasPrice": "0x1",
      "from": "0x70997970c51812dc3a010c7d01b50e0d17dc79c8",
      "to": "0x2c56932223cde0d363266f1308c48ff1bf9f9041",
      "contractAddress": null
    },
    {
      "status": "0x1",
      "cumulativeGasUsed": "0xb4bd",
      "logs": [
        {
          "address": "0x91c8c745fd156d8624677aa924cdc1ef8173c69c",
          "topics": [
            "0x8c5be1e5ebec7d5bd14f71427d1e84f3dd0314c0f7b2291e5b200ac8c7c3b925",
            "0x00000000000000000000000070997970c51812dc3a010c7d01b50e0d17dc79c8",
            "0x000000000000000000000000c565eb7363769f8ffae0005285ccd854c631a0a0"
          ],
          "data": "0x0000000000000000000000000000000000000000000000000000000005f5e100",
          "blockHash": "0xfa4c2ddc5089c6f32c2d8d5dd00218dcc5d2b8ade1f3aae6f405eb02b2273deb",
          "blockNumber": "0x152a730",
          "blockTimestamp": "0x67ef84b9",
          "transactionHash": "0x29b987d47f587e18b8e4fcef94f0f8d26d41a3c16fb3e93301670bc3002406ab",
          "transactionIndex": "0x0",
          "logIndex": "0x0",
          "removed": false
        }
      ],
      "logsBloom": "0x00000000000000000002000000000000000000000000000000000000000000000000000000000000000000008000000000000000000000000000000000200000000000000000000000000008000000000000000000000000000000000000000000000800000000000000000000000000000000000020000008000000000000000000000000000000000000000000000000000000000000000000000000000000020000000000000000000002000000000000000000000000000000000000000000000000000000000000000000000000000000000000000000000000000000000010000000000000000000000000002001000000000000000000000000000000",
      "type": "0x2",
      "transactionHash": "0x29b987d47f587e18b8e4fcef94f0f8d26d41a3c16fb3e93301670bc3002406ab",
      "transactionIndex": "0x0",
      "blockHash": "0xfa4c2ddc5089c6f32c2d8d5dd00218dcc5d2b8ade1f3aae6f405eb02b2273deb",
      "blockNumber": "0x152a730",
      "gasUsed": "0xb4bd",
      "effectiveGasPrice": "0x2be36c7",
      "blobGasPrice": "0x1",
      "from": "0x70997970c51812dc3a010c7d01b50e0d17dc79c8",
      "to": "0x91c8c745fd156d8624677aa924cdc1ef8173c69c",
      "contractAddress": null
    },
    {
      "status": "0x1",
      "cumulativeGasUsed": "0xb4bd",
      "logs": [
        {
          "address": "0xda796117bf6905dd8db2ff1ab4397f6d2c4adda3",
          "topics": [
            "0x8c5be1e5ebec7d5bd14f71427d1e84f3dd0314c0f7b2291e5b200ac8c7c3b925",
            "0x00000000000000000000000070997970c51812dc3a010c7d01b50e0d17dc79c8",
            "0x000000000000000000000000c565eb7363769f8ffae0005285ccd854c631a0a0"
          ],
          "data": "0x0000000000000000000000000000000000000000000000000000000005f5e100",
          "blockHash": "0x06657b33e2db8ed7ac6f6cda571339d720a384e0598c4ecc324b2896f429f11d",
          "blockNumber": "0x152a731",
          "blockTimestamp": "0x67ef84b9",
          "transactionHash": "0x29718a84fd4bea88f631e7a7058e0043ac49453e021f206ebb3c7f1c31f27189",
          "transactionIndex": "0x0",
          "logIndex": "0x0",
          "removed": false
        }
      ],
      "logsBloom": "0x00000000000000000002000000000000000000000000000000000000000000000000000000000000000000000000000000000000001000000000000000200000000000000000000000000008000000000000000000000000000000800000000000000800000000000000000000000000000000000000000008000000000000000000000000000000000000000000000000000000000000000000000000000000020000000000000000000000000000000000002000000000000000000000000000000000000000000000000000000000000000000000000000000000000000000010000000000000000000000000002001000000000000000000000000000000",
      "type": "0x2",
      "transactionHash": "0x29718a84fd4bea88f631e7a7058e0043ac49453e021f206ebb3c7f1c31f27189",
      "transactionIndex": "0x0",
      "blockHash": "0x06657b33e2db8ed7ac6f6cda571339d720a384e0598c4ecc324b2896f429f11d",
      "blockNumber": "0x152a731",
      "gasUsed": "0xb4bd",
      "effectiveGasPrice": "0x27dae98",
      "blobGasPrice": "0x1",
      "from": "0x70997970c51812dc3a010c7d01b50e0d17dc79c8",
      "to": "0xda796117bf6905dd8db2ff1ab4397f6d2c4adda3",
      "contractAddress": null
    },
    {
      "status": "0x1",
      "cumulativeGasUsed": "0x1372d",
      "logs": [
        {
          "address": "0x2c56932223cde0d363266f1308c48ff1bf9f9041",
          "topics": [
            "0xddf252ad1be2c89b69c2b068fc378daa952ba7f163c4a11628f55a4df523b3ef",
            "0x00000000000000000000000070997970c51812dc3a010c7d01b50e0d17dc79c8",
            "0x000000000000000000000000e69c18b54bbd6952684b7b0e7d49472b371bbd8c"
          ],
          "data": "0x00000000000000000000000000000000000000000000000000000000001e8480",
          "blockHash": "0x78368cccaf5145f0f5f69bf0ff0c30e753757f3a3fba582dea79dcd4ac7dd885",
          "blockNumber": "0x152a732",
          "blockTimestamp": "0x67ef84b9",
          "transactionHash": "0xbca71196b36940325bf10dc47e843142a72f2835e8070feb41d133ef180af77d",
          "transactionIndex": "0x0",
          "logIndex": "0x0",
          "removed": false
        },
        {
          "address": "0x91c8c745fd156d8624677aa924cdc1ef8173c69c",
          "topics": [
            "0xddf252ad1be2c89b69c2b068fc378daa952ba7f163c4a11628f55a4df523b3ef",
            "0x000000000000000000000000e69c18b54bbd6952684b7b0e7d49472b371bbd8c",
            "0x00000000000000000000000070997970c51812dc3a010c7d01b50e0d17dc79c8"
          ],
          "data": "0x00000000000000000000000000000000000000000000000000000000001220a7",
          "blockHash": "0x78368cccaf5145f0f5f69bf0ff0c30e753757f3a3fba582dea79dcd4ac7dd885",
          "blockNumber": "0x152a732",
          "blockTimestamp": "0x67ef84b9",
          "transactionHash": "0xbca71196b36940325bf10dc47e843142a72f2835e8070feb41d133ef180af77d",
          "transactionIndex": "0x0",
          "logIndex": "0x1",
          "removed": false
        },
        {
          "address": "0xe69c18b54bbd6952684b7b0e7d49472b371bbd8c",
          "topics": [
            "0x18704ae982dcd24a1beeeed3ecf045ab0520d7b7519b97adf3e4f40bf7efe339",
            "0x00000000000000000000000070997970c51812dc3a010c7d01b50e0d17dc79c8",
            "0x00000000000000000000000000000000000000000000000000000000001e8480",
            "0x00000000000000000000000000000000000000000000000000000000001220a7"
          ],
          "data": "0x",
          "blockHash": "0x78368cccaf5145f0f5f69bf0ff0c30e753757f3a3fba582dea79dcd4ac7dd885",
          "blockNumber": "0x152a732",
          "blockTimestamp": "0x67ef84b9",
          "transactionHash": "0xbca71196b36940325bf10dc47e843142a72f2835e8070feb41d133ef180af77d",
          "transactionIndex": "0x0",
          "logIndex": "0x2",
          "removed": false
        }
      ],
      "logsBloom": "0x00000000800000000002000000000000000000000000000000000000000000002000000000000000000000008000000000000200200000000004000000000000008000002000000000000008000000000000000000010000001000002000000000000800000000000000100000000000000000000020000000000010000000800000000000042000000000000000000000000000000000000000000000000000000000000000000000000002000000000000000000000000000000000000000000000002000000000000000000000002004000000000000000000000000002000000000000000000000000000000000001000000080000000000000000000000",
      "type": "0x2",
      "transactionHash": "0xbca71196b36940325bf10dc47e843142a72f2835e8070feb41d133ef180af77d",
      "transactionIndex": "0x0",
      "blockHash": "0x78368cccaf5145f0f5f69bf0ff0c30e753757f3a3fba582dea79dcd4ac7dd885",
      "blockNumber": "0x152a732",
      "gasUsed": "0x1372d",
      "effectiveGasPrice": "0x245321d",
      "blobGasPrice": "0x1",
      "from": "0x70997970c51812dc3a010c7d01b50e0d17dc79c8",
      "to": "0xc565eb7363769f8ffae0005285ccd854c631a0a0",
      "contractAddress": null
    },
    {
      "status": "0x1",
      "cumulativeGasUsed": "0x1372d",
      "logs": [
        {
          "address": "0x2c56932223cde0d363266f1308c48ff1bf9f9041",
          "topics": [
            "0xddf252ad1be2c89b69c2b068fc378daa952ba7f163c4a11628f55a4df523b3ef",
            "0x00000000000000000000000070997970c51812dc3a010c7d01b50e0d17dc79c8",
            "0x000000000000000000000000895ff517fbfe6f2094a5a853e992f176389a2a3f"
          ],
          "data": "0x00000000000000000000000000000000000000000000000000000000004c4b40",
          "blockHash": "0x879a942b8843bf2c2017266faf1fd399736824dda015f482fb1a41a15ba49318",
          "blockNumber": "0x152a733",
          "blockTimestamp": "0x67ef84b9",
          "transactionHash": "0x1d4bb99a909d15774feb9171aa5243bd365f9e559a5ddb429cdd9e4c34ff15f5",
          "transactionIndex": "0x0",
          "logIndex": "0x0",
          "removed": false
        },
        {
          "address": "0xda796117bf6905dd8db2ff1ab4397f6d2c4adda3",
          "topics": [
            "0xddf252ad1be2c89b69c2b068fc378daa952ba7f163c4a11628f55a4df523b3ef",
            "0x000000000000000000000000895ff517fbfe6f2094a5a853e992f176389a2a3f",
            "0x00000000000000000000000070997970c51812dc3a010c7d01b50e0d17dc79c8"
          ],
          "data": "0x00000000000000000000000000000000000000000000000000000000005139b3",
          "blockHash": "0x879a942b8843bf2c2017266faf1fd399736824dda015f482fb1a41a15ba49318",
          "blockNumber": "0x152a733",
          "blockTimestamp": "0x67ef84b9",
          "transactionHash": "0x1d4bb99a909d15774feb9171aa5243bd365f9e559a5ddb429cdd9e4c34ff15f5",
          "transactionIndex": "0x0",
          "logIndex": "0x1",
          "removed": false
        },
        {
          "address": "0x895ff517fbfe6f2094a5a853e992f176389a2a3f",
          "topics": [
            "0x18704ae982dcd24a1beeeed3ecf045ab0520d7b7519b97adf3e4f40bf7efe339",
            "0x00000000000000000000000070997970c51812dc3a010c7d01b50e0d17dc79c8",
            "0x00000000000000000000000000000000000000000000000000000000004c4b40",
            "0x00000000000000000000000000000000000000000000000000000000005139b3"
          ],
          "data": "0x",
          "blockHash": "0x879a942b8843bf2c2017266faf1fd399736824dda015f482fb1a41a15ba49318",
          "blockNumber": "0x152a733",
          "blockTimestamp": "0x67ef84b9",
          "transactionHash": "0x1d4bb99a909d15774feb9171aa5243bd365f9e559a5ddb429cdd9e4c34ff15f5",
          "transactionIndex": "0x0",
          "logIndex": "0x2",
          "removed": false
        }
      ],
      "logsBloom": "0x00000000000000000002000000000000000000000000000000000000000000002000000100000000004000000000000000000220001000000000000000000000000000000000000000000008000008000000000000000000000000802000000000000800402000000000000000000000000000000000020000000010000001000000200002040000000000000000000000000000000000000000000000000000000000000000000000000000000000000000002000000000000000000000000000000002000000000000000000000002000000002000000000000000000000000000000000000000000000000000000001000000080000000000000000002000",
      "type": "0x2",
      "transactionHash": "0x1d4bb99a909d15774feb9171aa5243bd365f9e559a5ddb429cdd9e4c34ff15f5",
      "transactionIndex": "0x0",
      "blockHash": "0x879a942b8843bf2c2017266faf1fd399736824dda015f482fb1a41a15ba49318",
      "blockNumber": "0x152a733",
      "gasUsed": "0x1372d",
      "effectiveGasPrice": "0x213d820",
      "blobGasPrice": "0x1",
      "from": "0x70997970c51812dc3a010c7d01b50e0d17dc79c8",
      "to": "0xc565eb7363769f8ffae0005285ccd854c631a0a0",
      "contractAddress": null
    },
    {
      "status": "0x1",
      "cumulativeGasUsed": "0x1372d",
      "logs": [
        {
          "address": "0x91c8c745fd156d8624677aa924cdc1ef8173c69c",
          "topics": [
            "0xddf252ad1be2c89b69c2b068fc378daa952ba7f163c4a11628f55a4df523b3ef",
            "0x00000000000000000000000070997970c51812dc3a010c7d01b50e0d17dc79c8",
            "0x000000000000000000000000b823aefa691a85c47f807ca9ac4ef621fb06c94c"
          ],
          "data": "0x0000000000000000000000000000000000000000000000000000000000989680",
          "blockHash": "0x3fe0018edcdfd4201389363baea086ca66ffd4314584625506af157bcaae12b3",
          "blockNumber": "0x152a734",
          "blockTimestamp": "0x67ef84b9",
          "transactionHash": "0x0cd4be492409fe611f2fb21859e1a936c7efa6b481bdf72d70a6868db95f518f",
          "transactionIndex": "0x0",
          "logIndex": "0x0",
          "removed": false
        },
        {
          "address": "0xda796117bf6905dd8db2ff1ab4397f6d2c4adda3",
          "topics": [
            "0xddf252ad1be2c89b69c2b068fc378daa952ba7f163c4a11628f55a4df523b3ef",
            "0x000000000000000000000000b823aefa691a85c47f807ca9ac4ef621fb06c94c",
            "0x00000000000000000000000070997970c51812dc3a010c7d01b50e0d17dc79c8"
          ],
          "data": "0x000000000000000000000000000000000000000000000000000000000079d68c",
          "blockHash": "0x3fe0018edcdfd4201389363baea086ca66ffd4314584625506af157bcaae12b3",
          "blockNumber": "0x152a734",
          "blockTimestamp": "0x67ef84b9",
          "transactionHash": "0x0cd4be492409fe611f2fb21859e1a936c7efa6b481bdf72d70a6868db95f518f",
          "transactionIndex": "0x0",
          "logIndex": "0x1",
          "removed": false
        },
        {
          "address": "0xb823aefa691a85c47f807ca9ac4ef621fb06c94c",
          "topics": [
            "0x18704ae982dcd24a1beeeed3ecf045ab0520d7b7519b97adf3e4f40bf7efe339",
            "0x00000000000000000000000070997970c51812dc3a010c7d01b50e0d17dc79c8",
            "0x0000000000000000000000000000000000000000000000000000000000989680",
            "0x000000000000000000000000000000000000000000000000000000000079d68c"
          ],
          "data": "0x",
          "blockHash": "0x3fe0018edcdfd4201389363baea086ca66ffd4314584625506af157bcaae12b3",
          "blockNumber": "0x152a734",
          "blockTimestamp": "0x67ef84b9",
          "transactionHash": "0x0cd4be492409fe611f2fb21859e1a936c7efa6b481bdf72d70a6868db95f518f",
          "transactionIndex": "0x0",
          "logIndex": "0x2",
          "removed": false
        }
      ],
      "logsBloom": "0x00000000080000000202000000000000000000000000000000000000000000002000000000000000000000208000000000000400001000000000000000000000000000000000000000000008000000000000000000000000000000800000000000000800000008000000000000000000000000000020080000000010000000000000000000000000000000000000000000000000000000000000000000000000000000000000000000000002000000000000002000000000000000000000000000000002004000000000000000004002000080000000000000000000000010000000000000000000100000000000000001040000080000000000000000000000",
      "type": "0x2",
      "transactionHash": "0x0cd4be492409fe611f2fb21859e1a936c7efa6b481bdf72d70a6868db95f518f",
      "transactionIndex": "0x0",
      "blockHash": "0x3fe0018edcdfd4201389363baea086ca66ffd4314584625506af157bcaae12b3",
      "blockNumber": "0x152a734",
      "gasUsed": "0x1372d",
      "effectiveGasPrice": "0x1e8a262",
      "blobGasPrice": "0x1",
      "from": "0x70997970c51812dc3a010c7d01b50e0d17dc79c8",
      "to": "0xc565eb7363769f8ffae0005285ccd854c631a0a0",
      "contractAddress": null
    }
  ],
  "libraries": [],
  "pending": [],
  "returns": {},
  "timestamp": 1745564101,
  "chain": 1,
  "commit": "f3353a7"
}